:030000000204D522
:0C04D500787FE4F6D8FD75812102042830
:1000030052554E2D2D2D2D2D2D0D0A00736C65652A
:10001300700D0A0049444C464C3D2562782C4944F6
:100023004C46483D2562782C535450463D25627812
:030033000D0A00B3
:0A04E100759BD0759DCC759E03221B
:0E04C7008F9CE59B5402640270F8539BFD224B
:05003600AE070204C743
:03003B000204B507
:1004B500C0E0E59B540164017005539BFEB291D0E9
:0204C500E03223
:10042800E4F5864396809080027406F090800EF082
:100438009080087402F0A3F0A3F01204E17BFF7A25
:100448000079031200A0D2AFE4F5A1908040F0F546
:10045800A9F5D1F5B9F5F97F147E00EF1FAC067048
:10046800011E4C6004B29080F2539BFEAFFCEF700B
:10047800E6AFFDEF70E1B2920000B2927BFF7A0026
:10048800790F1200A053967F53977F908300E04422
:1004980080F0438701000000007BFF7A0079178510
:0D04A800FC0B85FD0C85FE0D1200A080AA46
:10003E00E517240BF8E60517227808300702780B2F
:10004E00E475F0011203F202039A2000EB7F2ED228
:10005E00008018EF540F2490D43440D4FF30040B9A
:10006E00EF24BFB41A0050032461FFE51860021597
:10007E0018051BE51B7002051A30070D7808E4758C
:10008E00F0011203F2EF0203E00200367403D2070E
:10009E008003E4C207F5178B088A09890AE4F5186C
:1000AE00F51AF51BE51860077F2012007980F575AB
:1000BE0019FFC201C200C202C203C205C206C208B3
:1000CE00120047FF700D3007057F0012008AAF1B2C
:1000DE00AE1A22B4255FC2D5C204120047FF24D047
:1000EE00B40A00501A75F00A781830D50508B6FF14
:1000FE000106C6A426F620D5047002D20380D924A8
:10010E00CFB41A00EF5004C2E5D20402028AD20123
:10011E0080C6D20080C0D20280BCD2D580BAD205B1
:10012E0080B47F201200792002077401B5180040B8
:10013E00F112003EFF1200790200B2D208D2068000
:10014E009512003EFB12003EFA12003EF94A4B7029
:10015E0006795B7A037BFF20022EE518602A7E006B
:10016E008E827583001203B360060EEE651970F071
:10017E00C2D5EBC0E0EAC0E0E9C0E0EE1202D1D099
:10018E00E0F9D0E0FAD0E0FB12039AFF60AAEBC0D0
:10019E00E0EAC0E0E9C0E0120079D0E02401F9D035
:1001AE00E03400FAD0E0FBE5190460DCD519D98003
:1001BE00877BFF7A0279CDD202809C7910800279FA
:1001CE0008C206C2088008D2D5790A8004790AC20C
:1001DE00D5E519047002F519E4FAFDFEFF12003E92
:1001EE00FC7B0820011312003EFD7B1030000A122A
:1001FE00003EFE12003EFF7B20EC3382D592D5509E
:10020E0013C3E43000069FFFE49EFEE42001039D2D
:10021E00FDE49CFCE4CBF8C201EC700CCFCECDCC4F
:10022E00E824F8F870F38017C3EF33FFEE33FEEDDA
:10023E0033FDEC33FCEB33FB994002FB0FD8E9EBBB
:10024E00300105F8D0E0C448B201C0E00AEC4D4ED2
:10025E004F78207B0070C2EAB5190040BCC0E01296
:10026E0002D3D0F0D0E0200104C4C0E0C4B201C07B
:10027E00F0120062D0F0D5F0EB0200B212040201CF
:10028E004F5301C95801204C011C4201CD4F01D5DD
:0F029E004401D54901354301DB5501BF4601BF7E
:1002AD004501BF47037B5001242D01282E014B2B07
:1002BD00012C2301492003642A00E4480000014376
:1002CD003F3F3F00790AA2D5200314300509B9102C
:1002DD00020404B9080104A2D5200602500104202D
:1002ED0002689202B518005034C0E07F2030031927
:1002FD007F30A20272067205500F12032AC202C28B
:10030D0006C205C2087F30800F300503E9C0E01238
:10031D000079300503D0E0F9D0E0B518CC300517E1
:10032D007F30B9100C1200797F583004077F788028
:10033D0003B908031200793002057F2D0200797F81
:10034D00202008F87F2B2006F322920280CF286E02
:10035D00756C6C2900D20112003E3001F8C2017893
:10036D001830D50108F60200E42D5043495812000B
:10037D003E2403B405004001E49003769312006A15
:0D038D00743A12006AD2037518040201C907
:10039A00BB010689828A83E0225002E722BBFE0261
:0903AA00E32289828A83E4932294
:1003B300BB010CE58229F582E5833AF583E02250FF
:1003C30006E92582F8E622BBFE06E92582F8E22249
:0D03D300E58229F582E5833AF583E4932263
:1003E000BB010689828A83F0225002F722BBFE01FC
:0203F000F322F6
:1003F200FAE6FB0808E6F925F0F618E6CA3AF6220C
:10040200D083D082F8E4937012740193700DA3A389
:1004120093F8740193F5828883E47374029368609D
:06042200EFA3A3A380DF9D
:00000001FF
