:030000000204589F
:0C045800787FE4F6D8FD75813402049F23
:1000030052554E2D2D2D2D2D2D0D0A000D0A736CDD
:0F0013006176657220723A2000253262782000F3
:09060900012E0001220001230072
:0E05EC00E4FFFE0FBF00010EBE06F8BFA4F52F
:0105FA0022DE
:040562008E2F8F3019
:10056600E4F534F533F532F531AE2FAF307C007D4E
:100576000A1203A2EE3395E0FDFCAB34AA33A9328E
:10058600A831C31203B4501BE4FAF9F8E534240188
:10059600F534EA3533F533E93532F532E83531F5F8
:0305A6003180C6DB
:0105A900222F
:0A003800759B80759DCC759E032218
:0E05FB008F9CE59B5402640270F8539BFD2216
:05061A00AE070205FB24
:0706130075E1A875E38022E8
:10002200E5E35404640460F88FE2E5E3540160FA06
:0500320053E3FEAFE204
:0100370022A6
:05061F007FFF02002234
:030043000205AA09
:0905AA00C0E0C0D075D000C00013
:1005B300E5E354016401702A53E3FE74242523F810
:1005C300A6E20523C3E523940A748094804006754C
:1005D3002300752E0105228522E2E5E35404640419
:0205E30060F8BE
:0705E500D000D0D0D0E032BD
:1004E400E4F5864396801205EC1200387BFF7A000F
:1004F40079031200A890800D7405F0908000F0A399
:10050400F0908008F090800E04F0120613D2E9D225
:10051400AFE4F508C3E508940A74809480500B7422
:10052400242508F8E4F6050880EAE52E640170FA4B
:10053400F52E7BFF7A00790F1200A8E4F508C3E5D5
:1005440008940A7480948050E17BFF7A00791C74CB
:0E055400242508F8E6F50C1200A8050880E042
:100464000204E4E493A3F8E493A34003F68001F2C6
:1004740008DFF48029E493A3F85407240CC8C33399
:10048400C4540F4420C8834004F456800146F6DF68
:10049400E4800B0102040810204080900609E47EE9
:1004A400019360BCA3FF543F30E509541FFEE4935D
:1004B400A360010ECF54C025E060A840B8E493A324
:1004C400FAE493A3F8E493A3C8C582C8CAC583CA4F
:1004D400F0A3C8C582C8CAC583CADFE9DEE780BE07
:0106120000E7
:1003A200EF8DF0A4A8F0CF8CF0A428CE8DF0A42E6F
:0203B200FE2229
:1003B400EB9FF5F0EA9E42F0E99D42F0EC6480C8C0
:0603C40064809845F02260
:10004600E518240CF8E60518227809300702780C22
:10005600E475F0011204220203CA2000EB7F2ED2BF
:10006600008018EF540F2490D43440D4FF30040B92
:10007600EF24BFB41A0050032461FFE5196002158E
:1000860019051CE51C7002051B30070D7809E4757F
:10009600F001120422EF02041002061A7403D207BA
:1000A6008003E4C207F5188B098A0A890BE4F5195F
:1000B600F51BF51CE51960077F2012008180F57598
:1000C6001AFFC201C200C202C203C205C206C208AA
:1000D60012004FFF700D3007057F00120092AF1C13
:1000E600AE1B22B4255FC2D5C20412004FFF24D036
:1000F600B40A00501A75F00A781930D50508B6FF0B
:100106000106C6A426F620D5047002D20380D9249F
:10011600CFB41A00EF5004C2E5D204020292D20113
:1001260080C6D20080C0D20280BCD2D580BAD205A9
:1001360080B47F201200812002077401B5190040A7
:10014600F1120046FF1200810200BAD208D20680E0
:1001560095120046FB120046FA120046F94A4B7009
:100166000679637A037BFF20022EE519602A7E005A
:100176008E827583001203E360060EEE651A70F038
:10018600C2D5EBC0E0EAC0E0E9C0E0EE1202D9D089
:10019600E0F9D0E0FAD0E0FB1203CAFF60AAEBC098
:1001A600E0EAC0E0E9C0E0120081D0E02401F9D025
:1001B600E03400FAD0E0FBE51A0460DCD51AD980F9
:1001C600877BFF7A0279D5D202809C7910800279EA
:1001D60008C206C2088008D2D5790A8004790AC204
:1001E600D5E51A047002F51AE4FAFDFEFF12004680
:1001F600FC7B08200113120046FD7B1030000A121A
:100206000046FE120046FF7B20EC3382D592D55085
:1002160013C3E43000069FFFE49EFEE42001039D25
:10022600FDE49CFCE4CBF8C201EC700CCFCECDCC47
:10023600E824F8F870F38017C3EF33FFEE33FEEDD2
:1002460033FDEC33FCEB33FB994002FB0FD8E9EBB3
:10025600300105F8D0E0C448B201C0E00AEC4D4ECA
:100266004F78207B0070C2EAB51A0040BCC0E0128D
:1002760002DBD0F0D0E0200104C4C0E0C4B201C06B
:10028600F012006AD0F0D5F0EB0200BA1204320187
:10029600575301D15801284C01244201D54F01DDA5
:0F02A6004401DD49013D4301E35501C74601C74E
:1002B5004501C747038350012C2D01302E01532BD7
:1002C500013423015120036C2A00EC480000014B46
:1002D5003F3F3F00790AA2D5200314300509B91024
:1002E500020404B9080104A2D52006025001042025
:1002F50002689202B519005034C0E07F203003191E
:100305007F30A20272067205500F120332C202C27A
:1003150006C205C2087F30800F300503E9C0E01230
:100325000081300503D0E0F9D0E0B519CC300517D0
:100335007F30B9100C1200817F583004077F788018
:1003450003B908031200813002057F2D0200817F69
:10035500202008F87F2B2006F322920280CF286EFA
:10036500756C6C2900D2011200463001F8C2017883
:100375001930D50108F60200EC2D504349581200FA
:10038500462403B405004001E490037E93120072F5
:0D039500743A120072D2037519040201D1EE
:1003CA00BB010689828A83E0225002E722BBFE0231
:0903DA00E32289828A83E4932264
:1003E300BB010CE58229F582E5833AF583E02250CF
:1003F30006E92582F8E622BBFE06E92582F8E22219
:0D040300E58229F582E5833AF583E4932232
:10041000BB010689828A83F0225002F722BBFE01CB
:02042000F322C5
:10042200FAE6FB0808E6F925F0F618E6CA3AF622DB
:10043200D083D082F8E4937012740193700DA3A359
:1004420093F8740193F5828883E47374029368606D
:06045200EFA3A3A380DF6D
:00000001FF
