:030000000212B039
:0C12B000787FE4F6D8FD7581210212F76A
:10157100693D25782C76616C3D30582542580D0A1D
:1015810000693D2025642C202562785F2562780062
:1015910020256278005F2562780072756E3D3D3DC1
:0415A1003D0D0A00F2
:1011A7006080000000000000000000000000000058
:1011B7000000000000000000000000000000000028
:1011C7000000000000000000000000000000000018
:1011D7000000000000000000000000000000000008
:1011E70000000000000000000000000000000000F8
:1011F70000000000000000000000000000000000E8
:1012070000000000000000000000000000000000D7
:1012170000000000000000000000000000000000C7
:101227000000000060800080000000000000000057
:1012370000000000000000000000000000000000A7
:101247000000000000000000000000000000000097
:101257000000000000000000000000000000000087
:101267000000000000000000000000000000000077
:101277000000000000000000000000000000000067
:101287000000000000000000000000000000000057
:101297000000000000000000000000000000000047
:0812A70000000000000000003F
:0E15E200E4FFFE0FBF00010EBE06F8BFA4F529
:0115F00022D8
:041432007F0A7E00AF
:08143600900102EEF0A3EFF0BB
:10143E00A3120FCD00000000900104120FCD00008A
:10144E000000900103E0C4F8540FC868FF90010239
:10145E00E0C454F048FE7C007D0C120F45E4FCFD08
:10146E00900104E0F8A3E0F9A3E0FAA3E0FBC312B5
:10147E000FB05021900104E0FCA3E0FDA3E0FEA319
:10148E00E02401FFE43EFEE43DFDE43CFC9001045B
:05149E00120FC180AD3A
:0114A3002226
:0814A400900100EEF0A3EFF04F
:1014AC00A3120FCD00000000900100E0FEA3E0FFAE
:1014BC007C007D0A120F33EE3395E0FDFCA3E0F8BF
:1014CC00A3E0F9A3E0FAA3E0FBC3120F9A50279014
:1014DC000102E0FCA3E0FDA3E0FEA3E0FFE4FAF9C7
:1014EC00F8EF2401FFEA3EFEE93DFDE83CFC9001EB
:0614FC0002120FC180B2D4
:0115020022C6
:0815F1008F993099FDC2992287
:0515F900AE070215F130
:02150300AE0731
:10150500EEC4540FFDD3940974809480ED400424F7
:101515003780022430FF1215F1EE540FFDD39409E4
:1015250074809480ED4004243780022430FF121526
:06153500F17F200215F118
:1015A500C29FD29ED29CC298C299C2CAE4F5C9759F
:1015B500CACC75CBFF85CACC85CBCDD2CAD2CDD20C
:0215C500CC2236
:10000300E4FFFE1215C7121432E4900100F0A3F0CE
:10001300900100E0FEA3E0FFC39480EE648094802F
:10002300501D74802FF58274003EF5837401F090A7
:100033000101E004F070D9900100E004F080D17B6D
:10004300017A007980900107E4F0A37480F0E4FD65
:10005300FC12133CE4900100F0A3F0900100E0FED9
:10006300A3E0FFC39480EE64809480501C74002F3F
:10007300F58274003EF583E4F0900101E004F07032
:10008300DA900100E004F080D27B017A00790090DD
:10009300010AE4F0A37480F0E4FDFC1213BC121413
:1000A30032E4900100F0A3F0900100E0FEA3E0FF32
:1000B300C39480EE64809480502F7BFF7A1579710E
:1000C300900108EEF0A3EFF02400F58274003EF5F2
:1000D30083E090010AF0120BEA900101E004F07052
:1000E300C7900100E004F080BF7F807E001215C737
:1000F300121432E4900100F0A3F0900100E0FEA39B
:10010300E0FFC39480EE64809480501D74802FF5CB
:100113008274003EF5837402F0900101E004F070F4
:10012300D9900100E004F080D17B017A00798090BE
:100133000107E4F0A37480F0FD7C0012133CE4900B
:100143000100F0A3F0900100E0FEA3E0FFC3948060
:10015300EE64809480501C74002FF58274003EF589
:1001630083E4F0900101E004F070DA900100E00410
:10017300F080D27B017A00790090010AE4F0A37445
:1001830080F0FD7C001213BC121432E4900100F0E5
:10019300A3F07BFF7A157971900100E0FCA3E0FDE9
:1001A3002480FEE43C900108F0A3CEF074002DF50A
:1001B3008274003CF583E090010AF0120BEA90018F
:1001C30001E004F07006900100E004F0C390010127
:1001D300E09480900100E06480948040B57F007ECD
:1001E300011215C7121432E4900100F0A3F090013C
:1001F30000E0FEA3E0FFC39480EE64809480501D72
:1002030074802FF58274003EF5837403F09001012E
:10021300E004F070D9900100E004F080D17B017A12
:10022300007980900107E4F0A37480F07D007C01E5
:1002330012133CE4900100F0A3F0900100E0FEA350
:10024300E0FFC39480EE64809480501C74002FF50B
:100253008274003EF583E4F0900101E004F070DA6B
:10026300900100E004F080D27B017A0079009001D4
:100273000AE4F0A37480F07D007C011213BC121415
:1002830032E4900100F0A3F07BFF7A1579719001BD
:1002930000E0FCA3E0FD2400FEEC3401900108F033
:1002A300A3CEF074002DF58274003CF583E0900139
:1002B3000AF0120BEA900101E004F07006900100CD
:1002C300E004F0C3900101E09480900100E06480B9
:1002D300948040B47F807E011215C7121432E490DB
:1002E3000100F0A3F0900100E0FEA3E0FFC39480BF
:1002F300EE64809480501D74802FF58274003EF567
:10030300837404F0900101E004F070D9900100E0DF
:1003130004F080D17B017A007980900107E4F0A397
:100323007480F0FD7C0112133CE4900100F0A3F013
:10033300900100E0FEA3E0FFC39480EE648094800C
:10034300501C74002FF58274003EF583E4F0900195
:1003530001E004F070DA900100E004F080D27B0148
:100363007A00790090010AE4F0A37480F0FD7C0127
:100373001213BC121432E4900100F0A3F07BFF7A55
:10038300157971900100E0FCA3E0FD2480FEEC34BC
:1003930001900108F0A3CEF074002DF58274003CA7
:1003A300F583E090010AF0120BEA900101E004F0FA
:1003B3007006900100E004F0C3900101E094809086
:1003C3000100E06480948040B47F007E021215C770
:1003D300121432E4900100F0A3F0900100E0FEA3B8
:1003E300E0FFC39480EE64809480501D74802FF5E9
:1003F3008274003EF5837405F0900101E004F0700F
:10040300D9900100E004F080D17B017A00798090DB
:100413000107E4F0A37480F07D007C0212133CE436
:10042300900100F0A3F0900100E0FEA3E0FFC3946D
:1004330080EE64809480501C74002FF58274003E1B
:10044300F583E4F0900101E004F070DA900100E03C
:1004530004F080D27B017A00790090010AE4F0A3D2
:100463007480F07D007C021213BC121432E49001FC
:1004730000F0A3F07BFF7A157971900100E0FCA3F3
:10048300E0FD2400FEEC3402900108F0A3CEF074EA
:10049300002DF58274003CF583E090010AF0120B05
:1004A300EA900101E004F07006900100E004F0C35B
:1004B300900101E09480900100E06480948040B456
:1004C3007F807E021215C7121432E4900100F0A35C
:1004D300F0900100E0FEA3E0FFC39480EE648094FB
:1004E30080501D74802FF58274003EF5837406F0EE
:1004F300900101E004F070D9900100E004F080D194
:100503007B017A007980900107E4F0A37480F0FD09
:100513007C0212133CE4900100F0A3F0900100E090
:10052300FEA3E0FFC39480EE64809480501C7400AB
:100533002FF58274003EF583E4F0900101E004F0AE
:1005430070DA900100E004F080D27B017A00790038
:1005530090010AE4F0A37480F0FD7C021213BC1234
:100563001432E4900100F0A3F07BFF7A15797190C7
:100573000100E0FCA3E0FD2480FEEC3402900108BE
:10058300F0A3CEF074002DF58274003CF583E09067
:10059300010AF0120BEA900101E004F070069001E9
:1005A30000E004F0C3900101E09480900100E06456
:1005B30080948040B47F007E031215C7121432E486
:1005C300900100F0A3F0900100E0FEA3E0FFC394CC
:1005D30080EE64809480501D74802FF58274003EF9
:1005E300F5837407F0900101E004F070D9900100E5
:1005F300E004F080D17B017A007980900107E4F078
:10060300A37480F07D007C0312133CE4900100F09E
:10061300A3F0900100E0FEA3E0FFC39480EE6480AA
:100623009480501C74002FF58274003EF583E4F02F
:10063300900101E004F070DA900100E004F080D250
:100643007B017A00790090010AE4F0A37480F07DC5
:10065300007C031213BC121432E4900100F0A3F0E7
:100663007BFF7A157971900100E0FCA3E0FD240083
:10067300FEEC3403900108F0A3CEF074002DF58254
:1006830074003CF583E090010AF0120BEA9001013B
:10069300E004F07006900100E004F0C3900101E073
:1006A3009480900100E06480948040B47F807E0356
:1006B3001215C7121432E4900100F0A3F090010068
:1006C300E0FEA3E0FFC39480EE64809480501D7429
:1006D300802FF58274003EF5837408F0900101E0E9
:1006E30004F070D9900100E004F080D17B017A001E
:1006F3007980900107E4F0A37480F0FD7C0312136A
:100703003CE4900100F0A3F0900100E0FEA3E0FFC1
:10071300C39480EE64809480501C74002FF582741F
:10072300003EF583E4F0900101E004F070DA9001FB
:1007330000E004F080D27B017A00790090010AE4A2
:10074300F0A37480F0FD7C031213BC121432E49006
:100753000100F0A3F07BFF7A157971900100E0FCB2
:10076300A3E0FD2480FEEC3403900108F0A3CEF057
:1007730074002DF58274003CF583E090010AF012B9
:100783000BEA900101E004F07006900100E004F030
:10079300C3900101E09480900100E0648094804064
:1007A300B47F007E041215C7121432E4900100F0E6
:1007B300A3F0900100E0FEA3E0FFC39480EE648009
:1007C3009480501D74802FF58274003EF583740964
:1007D300F0900101E004F070D9900100E004F08092
:1007E300D17B017A007980900107E4F0A37480F053
:1007F3007D007C0412133CE4900100F0A3F090010F
:1008030000E0FEA3E0FFC39480EE64809480501C5C
:1008130074002FF58274003EF583E4F0900101E04B
:1008230004F070DA900100E004F080D27B017A00DA
:10083300790090010AE4F0A37480F07D007C041237
:1008430013BC121432E4900100F0A3F07BFF7A157D
:100853007971900100E0FCA3E0FD2400FEEC340478
:10086300900108F0A3CEF074002DF58274003CF5DE
:1008730083E090010AF0120BEA900101E004F070AA
:1008830006900100E004F0C3900101E09480900120
:1008930000E06480948040B47F807E041215C71208
:1008A3001432E4900100F0A3F0900100E0FEA3E015
:1008B300FFC39480EE64809480501D74802FF58272
:1008C30074003EF583740AF0900101E004F070D9DE
:1008D300900100E004F080D17B017A0079809001DF
:1008E30007E4F0A37480F0FD7C0412133CE4900150
:1008F30000F0A3F0900100E0FEA3E0FFC39480EEBC
:1009030064809480501C74002FF58274003EF5833C
:10091300E4F0900101E004F070DA900100E004F0EB
:1009230080D27B017A00790090010AE4F0A37480FD
:10093300F0FD7C041213BC121432E4900100F0A306
:10094300F07BFF7A157971900100E0FCA3E0FD24B0
:1009530080FEEC3404900108F0A3CEF074002DF572
:100963008274003CF583E090010AF0120BEA9001D7
:1009730001E004F07006900100E004F0C39001016F
:10098300E09480900100E06480948040B47F007E16
:10099300051215C7121432E4900100F0A3F0900180
:1009A30000E0FEA3E0FFC39480EE64809480501DBA
:1009B30074802FF58274003EF583740BF09001016F
:1009C300E004F070D9900100E004F080D17B017A5B
:1009D300007980900107E4F0A37480F07D007C052A
:1009E30012133CE4900100F0A3F0900100E0FEA399
:1009F300E0FFC39480EE64809480501C74002FF554
:100A03008274003EF583E4F0900101E004F070DAB3
:100A1300900100E004F080D27B017A00790090011C
:100A23000AE4F0A37480F07D007C051213BC121459
:100A330032E4900100F0A3F07BFF7A157971900105
:100A430000E0FCA3E0FD2400FEEC3405900108F077
:100A5300A3CEF074002DF58274003CF583E0900181
:100A63000AF0120BEA900101E004F0700690010015
:100A7300E004F0C3900101E09480900100E0648001
:100A8300948040B47F707E061215C7121432E4902E
:100A93000100F0A3F0900100E0FEA3E0FFC3948007
:100AA300EE64809480501D74802FF58274003EF5AF
:100AB30083740CF0900101E004F070D9900100E020
:100AC30004F080D17B017A007980900107E4F0A3E0
:100AD3007480F07D707C0612133CE4900100F0A357
:100AE300F0900100E0FEA3E0FFC39480EE648094E5
:100AF30080501C74002FF58274003EF583E4F0905F
:100B03000101E004F070DA900100E004F080D27B90
:100B1300017A00790090010AE4F0A37480F07D70FB
:100B23007C061213BC121432E4900100F0A3F07B94
:100B3300FF7A157971900100E0FCA3E0FD2470FEBB
:100B4300EC3406900108F0A3CEF074002DF5827406
:100B5300003CF583E090010AF0120BEA900101E0FA
:100B630004F07006900100E004F0C3900101E094EA
:0B0B730080900100E06480948040B49A
:010B7E002254
:10106F00E4900100F0A3F0900100E0FEA3E0FF7513
:10107F00F080A4908306F0EF7807C333CE33CED839
:10108F00F9EE908307F0908301748CF07BFF7A1553
:10109F007982900100E0FFA3E0900108CFF0A3EF69
:1010AF00F0908309E090010AF0908308E090010B23
:1010BF00F0120BEAE4900102F0A3F0900102E0FEBF
:1010CF00A3E0FFC39480EE9400501C74002FF582B0
:1010DF0074003EF583E4F0900103E004F070DC90BF
:1010EF000102E004F080D47B017A007900900100C6
:1010FF00E0FEA3E07807C333CE33CED8F9FDAC06BC
:10110F0090010AE4F0A37480F01213BCE490010282
:10111F00F0A3F0A3F0900104E0FFC39480748094D7
:10112F0080502174002FF582E43400F583E0FF90A6
:10113F000103E02FF0900102E03400F0900104E091
:10114F0004F080D1900102E0900104F07BFF7A154A
:10115F007991900108F0120BEA900102A3E0A3F03D
:10116F007BFF7A157996900108F0120BEA7F0D122A
:10117F0015F17F0A1215F1900101E004F07006904D
:10118F000100E004F0C3900101E09410900100E031
:07119F0094005003021076DA
:0111A6002226
:10153B00E4F5864396801215E29080087402F090D1
:10154B0080077407F0908006F01215A57BFF7A15C3
:10155B00799B120BEA12000312106FB2907FE87E98
:06156B00031214A480F538
:1015C7009083047478F0EF908306F0EEA3F0908395
:0B15D700017483F09083047487F022FD
:10133C00900102EBF0A3EAF0A3E9F0A3ECF0A3ED2B
:01134C00F0B0
:10134D00E4900109F09083047478F0908301748225
:10135D00F0E4900109F0900109E0FFD3900108E05D
:10136D009F900107E09400403F900105E0FEA3E04F
:10137D00908306F0EEA3F0900106E004F070069065
:10138D000105E004F0900102E0FBA3E0FAA3E0F90F
:10139D00900109E0F582758300120EE4908303F04D
:0E13AD00900109E004F080AE9083047487F094
:0113BB00220F
:1013BC00900105EBF0A3EAF0A3E9F0A3ECF0A3EDA8
:0113CC00F030
:1013CD00E490010CF09083017481F0E490010CF035
:1013DD0090010CE0FFD390010BE09F90010AE09487
:1013ED00004041900108E0FEA3E0908306F0EEA3DB
:1013FD00F0900109E004F07006900108E004F0900F
:10140D008303E0FF900105E0FBA3E0FAA3E0F99070
:10141D00010CE0F582758300EF120F1190010CE0C5
:04142D0004F080AC9B
:011431002298
:1012BC0002153BE493A3F8E493A34003F68001F2F8
:1012CC0008DFF48029E493A3F85407240CC8C33333
:1012DC00C4540F4420C8834004F456800146F6DF02
:1012EC00E4800B01020408102040809011A7E47EDA
:1012FC00019360BCA3FF543F30E509541FFEE493F7
:10130C00A360010ECF54C025E060A840B8E493A3BD
:10131C00FAE493A3F8E493A3C8C582C8CAC583CAE8
:10132C00F0A3C8C582C8CAC583CADFE9DEE780BEA0
:0112AF00003E
:100EE400BB010CE58229F582E5833AF583E02250C3
:100EF40006E92582F8E622BBFE06E92582F8E2220D
:0D0F0400E58229F582E5833AF583E4932226
:100F1100F8BB010DE58229F582E5833AF583E8F016
:100F2100225006E92582C8F622BBFE05E92582C8C2
:020F3100F222AA
:100F3300EF8DF0A4A8F0CF8CF0A428CE8DF0A42ED2
:020F4300FE228C
:100F4500BC000BBE0029EF8DF084FFADF022E4CC90
:100F5500F875F008EF2FFFEE33FEEC33FCEE9DEC59
:100F6500984005FCEE9DFE0FD5F0E9E4CEFD22ED9F
:100F7500F8F5F0EE8420D21CFEADF075F008EF2FE9
:100F8500FFED33FD4007985006D5F0F222C398FDDA
:050F95000FD5F0EA2277
:100F9A00EB9FF5F0EA9E42F0E99D42F0EC6480C8CE
:060FAA0064809845F0226E
:100FB000EB9FF5F0EA9E42F0E99D42F0E89C45F097
:010FC000220E
:0C0FC100ECF0A3EDF0A3EEF0A3EFF022A3
:100FCD00A8828583F0D083D082120FE4120FE41231
:100FDD000FE4120FE4E473E493A3C583C5F0C58356
:100FED00C8C582C8F0A3C583C5F0C583C8C582C86E
:010FFD0022D1
:100B7F00E5082408F582E43401F583E005082290A6
:100B8F000105300703900108E475F00112102902E6
:100B9F000FFE2000E97F2ED2008018EF540F249013
:100BAF00D43440D4FF30040BEF24BFB41A005003E9
:100BBF002461FFE50960021509050CE50C700205BB
:100BCF000B30070E900105E475F001121029EF02AA
:100BDF0010170215F97403D2078003E4C207F50852
:100BEF00900105121040E4F509F50BF50CE50960CD
:100BFF00077F20120BC280F5750AFFC201C200C227
:100C0F0002C203C205C206C208120B8EFF700D305E
:100C1F0007057F00120BD3AF0CAE0B22B4255FC2BA
:100C2F00D5C204120B8EFF24D0B40A00501A75F0EF
:100C3F000A780930D50508B6FF0106C6A426F620A6
:100C4F00D5047002D20380D924CFB41A00EF500418
:100C5F00C2E5D204020DD4D20180C6D20080C0D228
:100C6F000280BCD2D580BAD20580B47F20120BC2CD
:100C7F002002077401B5090040F1120B7FFF120B20
:100C8F00C2020BFCD208D2068095120B7FFB120B0F
:100C9F007FFA120B7FF94A4B700679A57A0E7BFF0C
:100CAF0020022EE509602A7E008E82758300120EC7
:100CBF00E460060EEE650A70F0C2D5EBC0E0EAC044
:100CCF00E0E9C0E0EE120E1BD0E0F9D0E0FAD0E080
:100CDF00FB120FFEFF60AAEBC0E0EAC0E0E9C0E044
:100CEF00120BC2D0E02401F9D0E03400FAD0E0FBBF
:100CFF00E50A0460DCD50AD980877BFF7A0E791765
:100D0F00D202809C791080027908C206C20880083E
:100D1F00D2D5790A8004790AC2D5E50A047002F5A2
:100D2F000AE4FAFDFEFF120B7FFC7B082001131271
:100D3F000B7FFD7B1030000A120B7FFE120B7FFF23
:100D4F007B20EC3382D592D55013C3E43000069F3D
:100D5F00FFE49EFEE42001039DFDE49CFCE4CBF840
:100D6F00C201EC700CCFCECDCCE824F8F870F38034
:100D7F0017C3EF33FFEE33FEED33FDEC33FCEB33F4
:100D8F00FB994002FB0FD8E9EB300105F8D0E0C426
:100D9F0048B201C0E00AEC4D4E4F78207B0070C284
:100DAF00EAB50A0040BCC0E0120E1DD0F0D0E02022
:100DBF000104C4C0E0C4B201C0F0120BABD0F0D537
:100DCF00F0EB020BFC1210490C99530D13580C6ADF
:100DDF004C0C66420D174F0D1F440D1F490C7F43DE
:080DEF000D25550D09460D0903
:100DF700450D09470EC5500C6E2D0C722E0C952B08
:100E07000C76230C93200EAE2A0C2E4800000C8D76
:100E17003F3F3F00790AA2D5200314300509B910D6
:100E2700020404B9080104A2D520060250010420D7
:100E370002689202B509005034C0E07F20300319E0
:100E47007F30A20272067205500F120E74C202C2E0
:100E570006C205C2087F30800F300503E9C0E012E3
:100E67000BC2300503D0E0F9D0E0B509CC30051747
:100E77007F30B9100C120BC27F583004077F78807F
:100E870003B90803120BC23002057F2D020BC27F84
:100E9700202008F87F2B2006F322920280CF286EAD
:100EA700756C6C2900D201120B7F3001F8C20178F2
:100EB7000930D50108F6020C2E2D50434958120B64
:100EC7007F2403B405004001E4900EC093120BB3D6
:0D0ED700743A120BB3D203750904020D1317
:100FFE00BB010689828A83E0225002E722BBFE02F1
:09100E00E32289828A83E4932223
:10101700BB010689828A83F0225002F722BBFE01B8
:02102700F322B2
:10102900F8E0FBA3A3E0F925F0F0E5821582700250
:071039001583E0FA38F022F4
:09104000EBF0A3EAF0A3E9F022B1
:10104900D083D082F8E4937012740193700DA3A336
:1010590093F8740193F5828883E47374029368604A
:06106900EFA3A3A380DF4A
:00000001FF
