:03000000020006F5
:0C000600787FE4F6D8FD758127020458CD
:1005240052554E2D2D2D2D2D2D0D0A00736C656504
:10053400700D0A0049444C464C3D2562782C4944D0
:100544004C46483D2562782C535450463D256278EC
:030554000D0A008D
:0404DC008E228F23BA
:1004E000E4F527F526F525F524AE22AF237C007D23
:1004F0000A1203A2EE3395E0FDFCAB27AA26A9253C
:10050000A824C31203B4501BE4FAF9F8E527240128
:10051000F527EA3526F526E93525F525E83524F5CC
:030520002480C66E
:0105230022B5
:0E05AF00E4FFFE0FBF00010EBE06F8BFA4F56C
:0105BD00221B
:0805BE008F993099FDC29922CA
:05002E00AE070205BE53
:03000300020028D0
:03002800B293325E
:030013000205DC07
:0305DC00B29332A5
:03002B00020016BA
:10001600C0E0E5D954016401700553D9FEB293D00E
:02002600E032C6
:030033000205794A
:10057900C0E0E5D954026402700553D9FDB293D0A5
:02058900E0325E
:03003B0002058B30
:10058B00C0E0E5D954046404700553D9FBB293D091
:02059B00E0324C
:0300430002059D16
:10059D00C0E0E5D954086408700553D9F7B293D07B
:0205AD00E0323A
:0705C60075FAC975880222D5
:0705CD0075FBC975880822C7
:0400360075DA09224C
:04003E0075DB092243
:0405D40075DC0922A7
:0405D80075DD0922A2
:10055700C29FD29EC29CC298C299C2CAE4F5C9750D
:10056700CACC75CBFF85CACC85CBCDD2CAD2CDD26A
:02057700CC2294
:10045800E4F5864396804397809080097481F090F4
:1004680080087402F090800AF0A3F0908006740669
:10047800F01205577BFF7A0579241200A81205C6E9
:1004880075D80FD2E9D2E8D2AED2ADD2AAD2A8435B
:10049800A880AFFCEF70FBAFFDEF70F67BFF7A052D
:1004A80079301200A8B2920000B29253967F539707
:1004B8007F908300E04480F0758701000000000011
:1004C8007BFF7A05793885FC0D85FD0E85FE0F12B8
:0404D80000A880BE3A
:1003A200EF8DF0A4A8F0CF8CF0A428CE8DF0A42E6F
:0203B200FE2229
:1003B400EB9FF5F0EA9E42F0E99D42F0EC6480C8C0
:0603C40064809845F02260
:10004600E519240DF8E6051922780A300702780D1D
:10005600E475F0011204220203CA2000EB7F2ED2BF
:10006600008018EF540F2490D43440D4FF30040B92
:10007600EF24BFB41A0050032461FFE51A6002158D
:100086001A051DE51D7002051C30070D780AE4757A
:10009600F001120422EF02041002002E7403D207AC
:1000A6008003E4C207F5198B0A8A0B890CE4F51A5A
:1000B600F51CF51DE51A60077F2012008180F57595
:1000C6001BFFC201C200C202C203C205C206C208A9
:1000D60012004FFF700D3007057F00120092AF1D12
:1000E600AE1C22B4255FC2D5C20412004FFF24D035
:1000F600B40A00501A75F00A781A30D50508B6FF0A
:100106000106C6A426F620D5047002D20380D9249F
:10011600CFB41A00EF5004C2E5D204020292D20113
:1001260080C6D20080C0D20280BCD2D580BAD205A9
:1001360080B47F201200812002077401B51A0040A6
:10014600F1120046FF1200810200BAD208D20680E0
:1001560095120046FB120046FA120046F94A4B7009
:100166000679637A037BFF20022EE51A602A7E0059
:100176008E827583001203E360060EEE651B70F037
:10018600C2D5EBC0E0EAC0E0E9C0E0EE1202D9D089
:10019600E0F9D0E0FAD0E0FB1203CAFF60AAEBC098
:1001A600E0EAC0E0E9C0E0120081D0E02401F9D025
:1001B600E03400FAD0E0FBE51B0460DCD51BD980F7
:1001C600877BFF7A0279D5D202809C7910800279EA
:1001D60008C206C2088008D2D5790A8004790AC204
:1001E600D5E51B047002F51BE4FAFDFEFF1200467E
:1001F600FC7B08200113120046FD7B1030000A121A
:100206000046FE120046FF7B20EC3382D592D55085
:1002160013C3E43000069FFFE49EFEE42001039D25
:10022600FDE49CFCE4CBF8C201EC700CCFCECDCC47
:10023600E824F8F870F38017C3EF33FFEE33FEEDD2
:1002460033FDEC33FCEB33FB994002FB0FD8E9EBB3
:10025600300105F8D0E0C448B201C0E00AEC4D4ECA
:100266004F78207B0070C2EAB51B0040BCC0E0128C
:1002760002DBD0F0D0E0200104C4C0E0C4B201C06B
:10028600F012006AD0F0D5F0EB0200BA1204320187
:10029600575301D15801284C01244201D54F01DDA5
:0F02A6004401DD49013D4301E35501C74601C74E
:1002B5004501C747038350012C2D01302E01532BD7
:1002C500013423015120036C2A00EC480000014B46
:1002D5003F3F3F00790AA2D5200314300509B91024
:1002E500020404B9080104A2D52006025001042025
:1002F50002689202B51A005034C0E07F203003191D
:100305007F30A20272067205500F120332C202C27A
:1003150006C205C2087F30800F300503E9C0E01230
:100325000081300503D0E0F9D0E0B51ACC300517CF
:100335007F30B9100C1200817F583004077F788018
:1003450003B908031200813002057F2D0200817F69
:10035500202008F87F2B2006F322920280CF286EFA
:10036500756C6C2900D2011200463001F8C2017883
:100375001A30D50108F60200EC2D504349581200F9
:10038500462403B405004001E490037E93120072F5
:0D039500743A120072D203751A040201D1ED
:1003CA00BB010689828A83E0225002E722BBFE0231
:0903DA00E32289828A83E4932264
:1003E300BB010CE58229F582E5833AF583E02250CF
:1003F30006E92582F8E622BBFE06E92582F8E22219
:0D040300E58229F582E5833AF583E4932232
:10041000BB010689828A83F0225002F722BBFE01CB
:02042000F322C5
:10042200FAE6FB0808E6F925F0F618E6CA3AF622DB
:10043200D083D082F8E4937012740193700DA3A359
:1004420093F8740193F5828883E47374029368606D
:06045200EFA3A3A380DF6D
:00000001FF
