:030000000206AB4A
:0C06AB00787FE4F6D8FD758140020570F0
:1006590052554E2D2D2D2D2D2D0D0A002532627846
:0F06690020000D0A00000000000000000000004B
:0E068E00E4FFFE0FBF00010EBE06F8BFA4F58C
:01069C00223B
:040611008E2D8F2E6D
:10061500E4F532F531F530F52FAE2DAF2E7C007DAA
:100625000A1204BAEE3395E0FDFCAB32AA31A930CB
:10063500A82FC31204CC501BE4FAF9F8E5322401C3
:10064500F532EA3531F531E93530F530E8352FF554
:030655002F80C62D
:01065800227F
:0E069D008F9CE59B5402640270F8539BFD2273
:0506C000AE0702069DDB
:0A003800759B80759DCC759E032218
:0906B700D29575E19AE4F5E32205
:10067800E5E35404640460F88FE2E5E3540160FAAA
:0506880053E3FEAFE2A8
:01068D00224A
:0506C5007FFF02067832
:0300430002004276
:01004200328B
:060003008B2D8A2E892FCF
:10000900E4FDC295EDC3940A74809480501EC29594
:10001900AF05120678AB2DAA2EA92F8D8275830004
:0E002900EF120498D29512068E0D80D8D29553
:0100370022A6
:1005700078237C007D007BFF7A06796E7E007F0AFF
:10058000120472E4F58643968012068E90800E74F3
:1005900006F01200387BFF7A0679591200A8758D93
:1005A0009C758920D28E75CBFF75CA9C85CACC8577
:1005B000CBCDE4F5C975C80490800D7402F090802D
:1005C000007405F0A3F0908008F0D2931206B7A350
:1005D0007481F07B007A007923120003E4F522C3D2
:1005E000E522940A7480948050157BFF7A06796521
:1005F00074232522F8E6F5301200A8052280E07B5E
:10060000FF7A06796B1200A87FE87E03120611803C
:01061000C227
:1003A200E709F608DFFA8046E709F208DFFA803E3D
:1003B20088828C83E709F0A3DFFA8032E309F6082A
:1003C200DFFA8078E309F208DFFA807088828C8392
:1003D200E309F0A3DFFA806489828A83E0A3F60846
:1003E200DFFA805889828A83E0A3F208DFFA804C20
:1003F20080D280FA80C680D4806980F280338010F7
:1004020080A680EA809A80A880DA80E280CA80335F
:1004120089828A83ECFAE493A3C8C582C8CCC583D7
:10042200CCF0A3C8C582C8CCC583CCDFE9DEE780A7
:100432000D89828A83E493A3F608DFF9ECFAA9F026
:10044200EDFB2289828A83ECFAE0A3C8C582C8CC7C
:10045200C583CCF0A3C8C582C8CCC583CCDFEADE95
:10046200E880DB89828A83E493A3F208DFF980CCF7
:1004720088F0EF60010E4E60C388F0ED2402B404F0
:100482000050B9F582EB2402B4040050AF23234597
:0604920082239003F273C7
:10049800F8BB010DE58229F582E5833AF583E8F09A
:1004A800225006E92582C8F622BBFE05E92582C846
:0204B800F2222E
:1004BA00EF8DF0A4A8F0CF8CF0A428CE8DF0A42E56
:0204CA00FE2210
:1004CC00EB9FF5F0EA9E42F0E99D42F0EC6480C8A7
:0604DC0064809845F02247
:10004600E53C2430F8E6053C22782D30070278306E
:10005600E475F00112053A0204E22000EB7F2ED28D
:10006600008018EF540F2490D43440D4FF30040B92
:10007600EF24BFB41A0050032461FFE53D6002156A
:100086003D0540E5407002053F30070D782DE475CB
:10009600F00112053AEF0205280206C07403D207E2
:1000A6008003E4C207F53C8B2D8A2E892FE4F53DAB
:1000B600F53FF540E53D60077F2012008180F5752C
:1000C6003EFFC201C200C202C203C205C206C20886
:1000D60012004FFF700D3007057F00120092AF40EF
:1000E600AE3F22B4255FC2D5C20412004FFF24D012
:1000F600B40A00501A75F00A783D30D50508B6FFE7
:100106000106C6A426F620D5047002D20380D9249F
:10011600CFB41A00EF5004C2E5D204020292D20113
:1001260080C6D20080C0D20280BCD2D580BAD205A9
:1001360080B47F201200812002077401B53D004083
:10014600F1120046FF1200810200BAD208D20680E0
:1001560095120046FB120046FA120046F94A4B7009
:100166000679637A037BFF20022EE53D602A7E0036
:100176008E827583001204FB60060EEE653E70F0FB
:10018600C2D5EBC0E0EAC0E0E9C0E0EE1202D9D089
:10019600E0F9D0E0FAD0E0FB1204E2FF60AAEBC07F
:1001A600E0EAC0E0E9C0E0120081D0E02401F9D025
:1001B600E03400FAD0E0FBE53E0460DCD53ED980B1
:1001C600877BFF7A0279D5D202809C7910800279EA
:1001D60008C206C2088008D2D5790A8004790AC204
:1001E600D5E53E047002F53EE4FAFDFEFF12004638
:1001F600FC7B08200113120046FD7B1030000A121A
:100206000046FE120046FF7B20EC3382D592D55085
:1002160013C3E43000069FFFE49EFEE42001039D25
:10022600FDE49CFCE4CBF8C201EC700CCFCECDCC47
:10023600E824F8F870F38017C3EF33FFEE33FEEDD2
:1002460033FDEC33FCEB33FB994002FB0FD8E9EBB3
:10025600300105F8D0E0C448B201C0E00AEC4D4ECA
:100266004F78207B0070C2EAB53E0040BCC0E01269
:1002760002DBD0F0D0E0200104C4C0E0C4B201C06B
:10028600F012006AD0F0D5F0EB0200BA12054A016E
:10029600575301D15801284C01244201D54F01DDA5
:0F02A6004401DD49013D4301E35501C74601C74E
:1002B5004501C747038350012C2D01302E01532BD7
:1002C500013423015120036C2A00EC480000014B46
:1002D5003F3F3F00790AA2D5200314300509B91024
:1002E500020404B9080104A2D52006025001042025
:1002F50002689202B53D005034C0E07F20300319FA
:100305007F30A20272067205500F120332C202C27A
:1003150006C205C2087F30800F300503E9C0E01230
:100325000081300503D0E0F9D0E0B53DCC300517AC
:100335007F30B9100C1200817F583004077F788018
:1003450003B908031200813002057F2D0200817F69
:10035500202008F87F2B2006F322920280CF286EFA
:10036500756C6C2900D2011200463001F8C2017883
:100375003D30D50108F60200EC2D504349581200D6
:10038500462403B405004001E490037E93120072F5
:0D039500743A120072D203753D040201D1CA
:1004E200BB010689828A83E0225002E722BBFE0218
:0904F200E32289828A83E493224B
:1004FB00BB010CE58229F582E5833AF583E02250B6
:10050B0006E92582F8E622BBFE06E92582F8E222FF
:0D051B00E58229F582E5833AF583E4932219
:10052800BB010689828A83F0225002F722BBFE01B2
:02053800F322AC
:10053A00FAE6FB0808E6F925F0F618E6CA3AF622C2
:10054A00D083D082F8E4937012740193700DA3A340
:10055A0093F8740193F5828883E473740293686054
:06056A00EFA3A3A380DF54
:00000001FF
