:03000000020810E3
:0C081000787FE4F6D8FD7581BE02085721
:100750004F50434F4E3D2562780D0A00504D4F5388
:100760003A4F504346473D2562780D0A004E4D4FA3
:10077000533A4F504346473D2562780D0A00626563
:10078000666F72653A0D0A002562303278202000CB
:100790000D0A0061667465723A0D0A004E565231B8
:1007A000353A6E6D6F735F76616C3D2562780D0A28
:1007B000004E565231353A706D6F735F76616C3D05
:1007C0002562780D0A004E565231333A6E6D6F73C2
:1007D0005F76616C3D2562780D0A004E56523133CA
:1007E0003A706D6F735F76616C3D2562780D0A001B
:1007F0006E6F742063616C206F700D0A0052554E4D
:100800002D2D4F505F666C61673D2562640D0A00B7
:10089C0001150020803F0000000000000000000057
:1008AC00000000000000000000000000000000003C
:1008BC00000000000000000000000000000000002C
:1008CC00000000000000000000000000000000001C
:1008DC00000000000000000000000000000000000C
:1008EC0000000000000000000000000000000000FC
:1008FC0000000000000000000000000000000000EC
:10090C0000000000000000000000000000000000DB
:06091C00000000000000D5
:0E0A2200E4FFFE0FBF00010EBE06F8BFA4F5F4
:010A300022A3
:0E0A3100E4FFFE0FBF00010EBE45F8BF24F526
:010A3F002294
:03003B0002001EA2
:10001E00C0E0E59B540164017009539BFE859C185A
:06002E00751501D0E0325F
:0E0A40008F9CE59B5402640270F8539BFD22CC
:05003400AE07020A40C6
:0A0A4E00759B80759DCC759E0322F8
:100003009083047478F0EF908306F0EEA3F090836E
:0B001300017483F09083047487F022D6
:100923007B007A00793F7530007531807D007C064D
:0A0933008B2B8A2C892D8C2E8D2F22
:10093D00E4FD9083047478F09083017481F0EDC32D
:10094D009531E495305027E52F908306F0E52EA3E1
:10095D00F0052FE52F7002052E908303E0AB2BAA37
:0E096D002CA92D8D827583001205100D80D0EF
:01097B002259
:0A09D3008B088A09890A8C0B8D0C31
:1009DD00E4FD9083047478F09083017482F0EDC38C
:1009ED00950EE4950D5027E50C908306F0E50BA3CD
:1009FD00F0050CE50C7002050BAB08AA09A90A8DD0
:100A0D00827583001204E3908303F00D80D09083F0
:040A1D00047487F0E6
:010A210022B2
:10039A00E4F50FF510F513F51475D3A075D4C075EF
:1003AA00D4807BFF7A07795085D32E1200A0E5D33B
:1003BA0054106410600705D4120A3180F17BFF7A69
:1003CA0007795C85D42E1200A085D41075D3A0536A
:1003DA00D47FE4F5D4800AE5D3541064106007058D
:1003EA00D4120A3180F17BFF7A07796D85D42E12F7
:1003FA0000A085D40F1209237BFF7A07797E1200A9
:10040A00A0E4F513F514F511F5127BFF7A07798844
:10041A00743F2512F8E6F52E1200A00514E51470B3
:10042A00020513AE13FF7C007D10120532ED4C70ED
:10043A00097BFF7A0779901200A00512E512700273
:10044A000511C39480E5116480948040BDE4F513DE
:10045A00F514787676AA08A60F08A610FF7E06126B
:10046A000003120A317B007A00793F750D00750E80
:10047A00807D007C061209D3120A227BFF7A077953
:10048A00931200A0120923E4F513F514F511F512DD
:10049A007BFF7A077988743F2512F8E6F52E120059
:1004AA00A00514E51470020513AE13FF7C007D103D
:1004BA00120532ED4C70097BFF7A0779901200A081
:1004CA000512E51270020511C39480E51164809447
:0804DA008040BDE4F513F514A8
:0104E20022F7
:10061E00E4F524F525F526F529F52A75D3A0FB7A00
:10062E0000793FF530753180FD7C07120933784E25
:10063E00E664AA706DF52408E6F52508E6F5267B36
:10064E00FF7A07799C85252E1200A07BFF7A077909
:10065E00B185262E1200A0E4F527F5287BFF7A0738
:10066E007988743F2528F8E6F52E1200A0052AE5B4
:10067E002A70020529AE29FF7C007D10120532ED8D
:10068E004C70097BFF7A0779901200A00528E528A7
:10069E0070020527C39480E5276480948040BD02D4
:1006AE000738120923E4F529F52AF527F5287BFFEB
:1006BE007A077988743F2528F8E6F52E1200A005F2
:1006CE002AE52A70020529AE29FF7C007D1012054D
:1006DE0032ED4C70097BFF7A0779901200A0052845
:1006EE00E52870020527C39480E527648094804036
:1006FE00BDE4F529F52A7876E664AA701EF524087D
:10070E00E6F52508E6F5267BFF7A0779C685252EC0
:10071E001200A07BFF7A0779DB80097524017BFF2D
:10072E007A0779F085262E1200A075D3A075D4C055
:10073E008526D453D47F8525D4120A3175D3C1AF03
:01074E002486
:01074F002287
:10097C00E4F522F523F586439680120A229080072F
:10098C007405F0908005F0A3F090800204F0908044
:10099C000EF09080087402F0120A4E12061E8F227E
:1009AC007BFF7A0779FD85222E1200A0E52260FCE0
:1009BC00B290E4F523C3E52394327480948050EC18
:0709CC00120A31052380EE41
:10081C0002097CE493A3F8E493A34003F68001F26D
:10082C0008DFF48029E493A3F85407240CC8C333DD
:10083C00C4540F4420C8834004F456800146F6DFAC
:10084C00E4800B010204081020408090089CE47E98
:10085C00019360BCA3FF543F30E509541FFEE493A1
:10086C00A360010ECF54C025E060A840B8E493A368
:10087C00FAE493A3F8E493A3C8C582C8CAC583CA93
:10088C00F0A3C8C582C8CAC583CADFE9DEE780BE4B
:0109220000D4
:1004E300BB010CE58229F582E5833AF583E02250CE
:1004F30006E92582F8E622BBFE06E92582F8E22218
:0D050300E58229F582E5833AF583E4932231
:10051000F8BB010DE58229F582E5833AF583E8F021
:10052000225006E92582C8F622BBFE05E92582C8CD
:02053000F222B5
:10053200C2D5EC30E709B2D5E4C39DFDE49CFCEEE4
:1005420030E715B2D5E4C39FFFE49EFE120593C3C4
:10055200E49DFDE49CFC800312059330D507C3E4BF
:060562009FFFE49EFE2253
:10003E00E53A242EF8E6053A22782B300702782E80
:10004E00E475F0011205E80205682000EB7F2ED260
:10005E00008018EF540F2490D43440D4FF30040B9A
:10006E00EF24BFB41A0050032461FFE53B60021574
:10007E003B053EE53E7002053D30070D782BE475DD
:10008E00F0011205E8EF0205810200347403D20775
:10009E008003E4C207F53A8B2B8A2C892DE4F53BBD
:1000AE00F53DF53EE53B60077F2012007980F57542
:1000BE003CFFC201C200C202C203C205C206C20890
:1000CE00120047FF700D3007057F0012008AAF3E09
:1000DE00AE3D22B4255FC2D5C204120047FF24D024
:1000EE00B40A00501A75F00A783B30D50508B6FFF1
:1000FE000106C6A426F620D5047002D20380D924A8
:10010E00CFB41A00EF5004C2E5D20402028AD20123
:10011E0080C6D20080C0D20280BCD2D580BAD205B1
:10012E0080B47F201200792002077401B53B004095
:10013E00F112003EFF1200790200B2D208D2068000
:10014E009512003EFB12003EFA12003EF94A4B7029
:10015E0006795B7A037BFF20022EE53B602A7E0048
:10016E008E827583001204E360060EEE653C70F01D
:10017E00C2D5EBC0E0EAC0E0E9C0E0EE1202D1D099
:10018E00E0F9D0E0FAD0E0FB120568FF60AAEBC000
:10019E00E0EAC0E0E9C0E0120079D0E02401F9D035
:1001AE00E03400FAD0E0FBE53C0460DCD53CD980BD
:1001BE00877BFF7A0279CDD202809C7910800279FA
:1001CE0008C206C2088008D2D5790A8004790AC20C
:1001DE00D5E53C047002F53CE4FAFDFEFF12003E4C
:1001EE00FC7B0820011312003EFD7B1030000A122A
:1001FE00003EFE12003EFF7B20EC3382D592D5509E
:10020E0013C3E43000069FFFE49EFEE42001039D2D
:10021E00FDE49CFCE4CBF8C201EC700CCFCECDCC4F
:10022E00E824F8F870F38017C3EF33FFEE33FEEDDA
:10023E0033FDEC33FCEB33FB994002FB0FD8E9EBBB
:10024E00300105F8D0E0C448B201C0E00AEC4D4ED2
:10025E004F78207B0070C2EAB53C0040BCC0E01273
:10026E0002D3D0F0D0E0200104C4C0E0C4B201C07B
:10027E00F0120062D0F0D5F0EB0200B21205F801D8
:10028E004F5301C95801204C011C4201CD4F01D5DD
:0F029E004401D54901354301DB5501BF4601BF7E
:1002AD004501BF47037B5001242D01282E014B2B07
:1002BD00012C2301492003642A00E4480000014376
:1002CD003F3F3F00790AA2D5200314300509B9102C
:1002DD00020404B9080104A2D5200602500104202D
:1002ED0002689202B53B005034C0E07F2030031904
:1002FD007F30A20272067205500F12032AC202C28B
:10030D0006C205C2087F30800F300503E9C0E01238
:10031D000079300503D0E0F9D0E0B53BCC300517BE
:10032D007F30B9100C1200797F583004077F788028
:10033D0003B908031200793002057F2D0200797F81
:10034D00202008F87F2B2006F322920280CF286E02
:10035D00756C6C2900D20112003E3001F8C2017893
:10036D003B30D50108F60200E42D504349581200E8
:10037D003E2403B405004001E49003769312006A15
:0D038D00743A12006AD203753B040201C9E4
:10056800BB010689828A83E0225002E722BBFE0291
:09057800E32289828A83E49322C4
:10058100BB010689828A83F0225002F722BBFE0159
:02059100F32253
:10059300BC000BBE0029EF8DF084FFADF022E4CC4C
:1005A300F875F008EF2FFFEE33FEEC33FCEE9DEC15
:1005B300984005FCEE9DFE0FD5F0E9E4CEFD22ED5B
:1005C300F8F5F0EE8420D21CFEADF075F008EF2FA5
:1005D300FFED33FD4007985006D5F0F222C398FD96
:0505E3000FD5F0EA2233
:1005E800FAE6FB0808E6F925F0F618E6CA3AF62214
:1005F800D083D082F8E4937012740193700DA3A392
:1006080093F8740193F5828883E4737402936860A5
:06061800EFA3A3A380DFA5
:00000001FF
