:03000000020036C5
:0C003600787FE4F6D8FD7581270204589D
:1000030052554E2D2D2D2D2D2D0D0A00736C65652A
:10001300700D0A0049444C464C3D2562782C4944F6
:100023004C46483D2562782C535450463D25627812
:030033000D0A00B3
:0404D4008E228F23C2
:1004D800E4F527F526F525F524AE22AF237C007D2B
:1004E8000A1203A2EE3395E0FDFCAB27AA26A92544
:1004F800A824C31203B4501BE4FAF9F8E527240131
:10050800F527EA3526F526E93525F525E83524F5D4
:030518002480C676
:01051B0022BD
:0E055000E4FFFE0FBF00010EBE06F8BFA4F5CB
:01055E00227A
:0E055F00E4FFFE0FBF00010EBE45F8BF24F5FD
:01056D00226B
:08056E008F993099FDC299221A
:05057600AE0702056E56
:10051C00C29FD29EC29CC298C299C2CAE4F5C97548
:10052C00CACC75CBFF85CACC85CBCDD2CAD2CDD2A5
:02053C00CC22CF
:0300430002053E75
:10053E00C0E0E5CF54016401700553CFFEB293D0F5
:02054E00E03299
:10045800E4F50AF58675969B90801B7407F0A3F067
:1004680075CE0E759508E595540160FA1205509001
:1004780080197406F090800B7402F0908009F012D5
:10048800051C7BFF7A0079031200A8AFFCEF70FB14
:10049800AFFDEF70F67BFF7A00790F1200A8B291DA
:1004A8000000B29153967F53977F908300E0448079
:1004B800F0758701000000007BFF7A00791785FC42
:0C04C8000E85FD0F85FE101200A880BFFD
:1003A200EF8DF0A4A8F0CF8CF0A428CE8DF0A42E6F
:0203B200FE2229
:1003B400EB9FF5F0EA9E42F0E99D42F0EC6480C8C0
:0603C40064809845F02260
:10004600E51A240EF8E6051A22780B300702780E18
:10005600E475F0011204220203CA2000EB7F2ED2BF
:10006600008018EF540F2490D43440D4FF30040B92
:10007600EF24BFB41A0050032461FFE51B6002158C
:100086001B051EE51E7002051D30070D780BE47575
:10009600F001120422EF0204100205767403D2075F
:1000A6008003E4C207F51A8B0B8A0C890DE4F51B55
:1000B600F51DF51EE51B60077F2012008180F57592
:1000C6001CFFC201C200C202C203C205C206C208A8
:1000D60012004FFF700D3007057F00120092AF1E11
:1000E600AE1D22B4255FC2D5C20412004FFF24D034
:1000F600B40A00501A75F00A781B30D50508B6FF09
:100106000106C6A426F620D5047002D20380D9249F
:10011600CFB41A00EF5004C2E5D204020292D20113
:1001260080C6D20080C0D20280BCD2D580BAD205A9
:1001360080B47F201200812002077401B51B0040A5
:10014600F1120046FF1200810200BAD208D20680E0
:1001560095120046FB120046FA120046F94A4B7009
:100166000679637A037BFF20022EE51B602A7E0058
:100176008E827583001203E360060EEE651C70F036
:10018600C2D5EBC0E0EAC0E0E9C0E0EE1202D9D089
:10019600E0F9D0E0FAD0E0FB1203CAFF60AAEBC098
:1001A600E0EAC0E0E9C0E0120081D0E02401F9D025
:1001B600E03400FAD0E0FBE51C0460DCD51CD980F5
:1001C600877BFF7A0279D5D202809C7910800279EA
:1001D60008C206C2088008D2D5790A8004790AC204
:1001E600D5E51C047002F51CE4FAFDFEFF1200467C
:1001F600FC7B08200113120046FD7B1030000A121A
:100206000046FE120046FF7B20EC3382D592D55085
:1002160013C3E43000069FFFE49EFEE42001039D25
:10022600FDE49CFCE4CBF8C201EC700CCFCECDCC47
:10023600E824F8F870F38017C3EF33FFEE33FEEDD2
:1002460033FDEC33FCEB33FB994002FB0FD8E9EBB3
:10025600300105F8D0E0C448B201C0E00AEC4D4ECA
:100266004F78207B0070C2EAB51C0040BCC0E0128B
:1002760002DBD0F0D0E0200104C4C0E0C4B201C06B
:10028600F012006AD0F0D5F0EB0200BA1204320187
:10029600575301D15801284C01244201D54F01DDA5
:0F02A6004401DD49013D4301E35501C74601C74E
:1002B5004501C747038350012C2D01302E01532BD7
:1002C500013423015120036C2A00EC480000014B46
:1002D5003F3F3F00790AA2D5200314300509B91024
:1002E500020404B9080104A2D52006025001042025
:1002F50002689202B51B005034C0E07F203003191C
:100305007F30A20272067205500F120332C202C27A
:1003150006C205C2087F30800F300503E9C0E01230
:100325000081300503D0E0F9D0E0B51BCC300517CE
:100335007F30B9100C1200817F583004077F788018
:1003450003B908031200813002057F2D0200817F69
:10035500202008F87F2B2006F322920280CF286EFA
:10036500756C6C2900D2011200463001F8C2017883
:100375001B30D50108F60200EC2D504349581200F8
:10038500462403B405004001E490037E93120072F5
:0D039500743A120072D203751B040201D1EC
:1003CA00BB010689828A83E0225002E722BBFE0231
:0903DA00E32289828A83E4932264
:1003E300BB010CE58229F582E5833AF583E02250CF
:1003F30006E92582F8E622BBFE06E92582F8E22219
:0D040300E58229F582E5833AF583E4932232
:10041000BB010689828A83F0225002F722BBFE01CB
:02042000F322C5
:10042200FAE6FB0808E6F925F0F618E6CA3AF622DB
:10043200D083D082F8E4937012740193700DA3A359
:1004420093F8740193F5828883E47374029368606D
:06045200EFA3A3A380DF6D
:00000001FF
