:03000000020601F4
:0C060100787FE4F6D8FD758121020648E0
:0C074F0052554E2D2D2D2D2D2D0D0A0084
:04075B004100320027
:08068D00900028EEF0A3EFF04D
:1006950090002A12053200000000900028E0FEA319
:1006A500E0FF7C007D0A1204FEEE3395E0FDFC9030
:1006B500002AE0F8A3E0F9A3E0FAA3E0FBC31205E2
:1006C50010502A90002AE0FCA3E0FDA3E0FEA3E081
:1006D500FF7B017A0079007800EF2BFFEE3AFEED03
:0D06E50039FDEC38FC90002A12052680AD8E
:0106F20022E5
:1006F30090002EE4F0A3E4F090002EE0FEA3E0FFD0
:10070300C3EF94A4EE64809486501090002FE0040D
:0B071300F0700690002EE004F080DD86
:01071E0022B8
:10071F00900030EFF0900030E0FF8F9CE59B54028B
:0D072F00FF7E00EF64024E70F3539BFD222D
:10073C00900031EFF0900031E0FF12071F90003174
:03074C00E0FF22A9
:0A003100759B80759DCC759E03221F
:03003B00020003BD
:10000300C0E0C083C082C0D075D000C00790804AD2
:10001300E0FFEF30E00D90804AE0FFEF54FEFFEF8A
:0E002300F0B291D007D0D0D082D083D0E0329E
:1003A3007586001206F3908051E4F0908059740131
:1003B300F09080617402F09080697403F090807112
:1003C3007404F09080797405F09080007403F090C9
:1003D30080017403F09080027403F090800374032F
:1003E300F09080047403F09080057403F09080080B
:1003F3007402F09080097402F090800A7481F09086
:10040300800E7406F0908050E4F0908058E4F090F1
:100413008060E4F0908068E4F0908070E4F0908075
:1004230078E4F0908048743FF0908049E4F0908045
:100433004A74E4F090804B7403F090804CE4F090A5
:10044300804D7403F090804EE4F0908054740AF071
:10045300908055E4F09080567463F0908057E4F0F8
:1004630090805C7414F090805DE4F090805E74631F
:10047300F090805FE4F0908064740AF0908065E40B
:10048300F09080667463F0908067E4F090806C7401
:1004930014F090806DE4F090806E7463F090806F40
:1004A300E4F0908074740AF0908075E4F0908076A4
:1004B3007463F0908077E4F090807C7414F0908003
:1004C3007DE4F090807E7463F090807FE4F0908010
:1004D3004074FFF01200317BFF7A07794F1200A9B5
:1004E300D2E8D2BCD2AF9080087402F09080097435
:0B04F30002F090800A7481F080FE226D
:10060D000203A3E493A3F8E493A34003F68001F25D
:10061D0008DFF48029E493A3F85407240CC8C333EE
:10062D00C4540F4420C8834004F456800146F6DFBD
:10063D00E4800B010204081020408090075BE47EEB
:10064D00019360BCA3FF543F30E509541FFEE493B2
:10065D00A360010ECF54C025E060A840B8E493A379
:10066D00FAE493A3F8E493A3C8C582C8CAC583CAA4
:10067D00F0A3C8C582C8CAC583CADFE9DEE780BE5C
:01075F000099
:1004FE00EF8DF0A4A8F0CF8CF0A428CE8DF0A42E12
:02050E00FE22CB
:10051000EB9FF5F0EA9E42F0E99D42F0EC6480C862
:0605200064809845F02202
:0C052600ECF0A3EDF0A3EEF0A3EFF02248
:10053200A8828583F0D083D0821205491205491220
:100542000549120549E473E493A3C583C5F0C58345
:10055200C8C582C8F0A3C583C5F0C583C8C582C813
:010562002276
:10003E00E5082403F582E43400F583E005082290F8
:10004E000000300703900003E475F0011205BB02B7
:10005E0005632000E97F2ED2008018EF540F249004
:10006E00D43440D4FF30040BEF24BFB41A00500335
:10007E002461FFE50960021509050CE50C70020507
:10008E000B30070E900000E475F0011205BBEF0275
:10009E0005A902073C7403D2078003E4C207F508E2
:1000AE009000001205D2E4F509F50BF50CE5096098
:1000BE00077F2012008180F5750AFFC201C200C2BF
:1000CE0002C203C205C206C20812004DFF700D30F7
:1000DE0007057F00120092AF0CAE0B22B4255FC253
:1000EE00D5C20412004DFF24D0B40A00501A75F088
:1000FE000A780930D50508B6FF0106C6A426F620F3
:10010E00D5047002D20380D924CFB41A00EF500464
:10011E00C2E5D204020293D20180C6D20080C0D2C0
:10012E000280BCD2D580BAD20580B47F2012008165
:10013E002002077401B5090040F112003EFF1200C3
:10014E00810200BBD208D206809512003EFB12003F
:10015E003EFA12003EF94A4B700679647A037BFF31
:10016E0020022EE509602A7E008E8275830012051C
:10017E007C60060EEE650A70F0C2D5EBC0E0EAC0F8
:10018E00E0E9C0E0EE1202DAD0E0F9D0E0FAD0E019
:10019E00FB120563FF60AAEBC0E0EAC0E0E9C0E035
:1001AE00120081D0E02401F9D0E03400FAD0E0FB57
:1001BE00E50A0460DCD50AD980877BFF7A0279D6FE
:1001CE00D202809C791080027908C206C20880088B
:1001DE00D2D5790A8004790AC2D5E50A047002F5EF
:1001EE000AE4FAFDFEFF12003EFC7B08200113120A
:1001FE00003EFD7B1030000A12003EFE12003EFF54
:10020E007B20EC3382D592D55013C3E43000069F89
:10021E00FFE49EFEE42001039DFDE49CFCE4CBF88C
:10022E00C201EC700CCFCECDCCE824F8F870F38080
:10023E0017C3EF33FFEE33FEED33FDEC33FCEB3340
:10024E00FB994002FB0FD8E9EB300105F8D0E0C472
:10025E0048B201C0E00AEC4D4E4F78207B0070C2D0
:10026E00EAB50A0040BCC0E01202DCD0F0D0E020BB
:10027E000104C4C0E0C4B201C0F012006AD0F0D5CF
:10028E00F0EB0200BB1205DB01585301D2580129D5
:10029E004C01254201D64F01DE4401DE49013E43A9
:0802AE0001E45501C84601C836
:1002B6004501C847038450012D2D01312E01542BD1
:1002C600013523015220036D2A00ED480000014C40
:1002D6003F3F3F00790AA2D5200314300509B91023
:1002E600020404B9080104A2D52006025001042024
:1002F60002689202B509005034C0E07F203003192D
:100306007F30A20272067205500F120333C202C278
:1003160006C205C2087F30800F300503E9C0E0122F
:100326000081300503D0E0F9D0E0B509CC300517DF
:100336007F30B9100C1200817F583004077F788017
:1003460003B908031200813002057F2D0200817F68
:10035600202008F87F2B2006F322920280CF286EF9
:10036600756C6C2900D20112003E3001F8C201788A
:100376000930D50108F60200ED2D50434958120008
:100386003E2403B405004001E490037F93120072FB
:0D039600743A120072D2037509040201D2FC
:10056300BB010689828A83E0225002E722BBFE0296
:09057300E32289828A83E49322C9
:10057C00BB010CE58229F582E5833AF583E0225034
:10058C0006E92582F8E622BBFE06E92582F8E2227E
:0D059C00E58229F582E5833AF583E4932298
:1005A900BB010689828A83F0225002F722BBFE0131
:0205B900F3222B
:1005BB00F8E0FBA3A3E0F925F0F0E58215827002C9
:0705CB001583E0FA38F0226D
:0905D200EBF0A3EAF0A3E9F0222A
:1005DB00D083D082F8E4937012740193700DA3A3AF
:1005EB0093F8740193F5828883E4737402936860C3
:0605FB00EFA3A3A380DFC3
:00000001FF
