:03000000020B7A76
:0C0B7A00787FE4F6D8FD7581240203A307
:10061000503058202020200A0D0030202020200AB1
:100620000D0031202020200A0D00503258202020BB
:10063000200A0D0032202020200A0D003320202027
:10064000200A0D00503458202020200A0D003420AC
:100650002020200A0D0035202020200A0D005053B4
:100660000A002562780A0046420A0052554E2D2D96
:100670002D2D2D2D0D0A00B4F2D3A150574DBCC421
:10068000B4E6C6F7B3F5CABCD6B50D0A0050574D4F
:100690003050533D2562782C0D0A50574D31505340
:1006A0003D2562782C0D0A50574D3250533D25623E
:1006B000782C0D0A50574D3350533D2562782C0D40
:1006C0000A50574D3450533D2562782C0D0A50572F
:1006D0004D3550533D2562782C0D0A50574D3650FC
:1006E000533D2562782C0D0A50574D3750533D2508
:1006F00062782C0D0A0050574D304455544C3D251E
:1007000062782C092050574D30445554483D25629D
:10071000782C092050574D304449564C3D2562787D
:100720002C092050574D30444956483D2562780DDC
:100730000A0050574D434C523D30782562782C09C1
:100740002050574D5550443D3078253262782C0961
:100750002050574D464C47303D3078253262782C3A
:10076000092050574D464C47313D3078253262784C
:100770000D0A004642434F4E3D3078253262782CB8
:10078000092046424441543D3078253262782C0994
:10079000204642464C473D3078253262782C090D80
:1007A0000A00504D4441543D3078253262782C097E
:1007B00020504D53434F4E3D3078253262782C09FE
:0307C0000D0A001F
:080A7C009000A0EEF0A3EFF0E2
:100A84009000A2120936000000009000A0E0FEA32E
:100A9400E0FF7C007D0A120902EE3395E0FDFC9034
:100AA40000A2E0F8A3E0F9A3E0FAA3E0FBC3120973
:100AB40014502A9000A2E0FCA3E0FDA3E0FEA3E012
:100AC400FF7B017A0079007800EF2BFFEE3AFEED10
:0D0AD40039FDEC38FC9000A212092A80AD1B
:010AE10022F2
:100B3B009000A6E4F0A3E4F09000A6E0FEA3E0FF93
:100B4B00C3EF94A4EE6480948650109000A7E00449
:0B0B5B00F070069000A6E004F080DDC2
:010B6600226C
:100003009000A8EFF09000A8E0FF8F9CE59B5402BE
:0D001300FF7E00EF64024E70F3539BFD2250
:100B67009000A9EFF09000A9E0FF1200039000A900
:030B7700E0FF227A
:0A002000759B80759DCC759E032230
:03002B000207C306
:1007C300C0E0C0F0C083C082C0D075D000C000C0FC
:1007D30001C002C003C004C005C006C007B28090B8
:1007E3008044E0FFEF30E0147BFF7A0679101200BB
:1007F300A9908044E0FFEF54FEFFEFF0908044E0C7
:10080300FFEF30E1147BFF7A06791A1200A990807A
:1008130044E0FFEF54FDFFEFF0908044E0FFEF3042
:10082300E3147BFF7A0679221200A9908044E0FF4B
:10083300EF54F7FFEFF0908044E0FFEF30E4147BD8
:10084300FF7A06792A1200A9908044E0FFEF54EF63
:10085300FFEFF0908044E0FFEF30E5147BFF7A0672
:1008630079341200A9908044E0FFEF54DFFFEFF0EA
:10087300908044E0FFEF30E7147BFF7A06793C1267
:1008830000A9908044E0FFEF547FFFEFF090804594
:10089300E0FFEF30E0147BFF7A0679441200A99061
:1008A3008045E0FFEF54FEFFEFF0908045E0FFEF5F
:1008B30030E1147BFF7A06794E1200A9908045E05F
:1008C300FFEF54FDFFEFF0908045E0FFEF30E314BE
:1008D3007BFF7A0679561200A9908045E0FFEF541A
:1008E300F7FFEFF0D007D006D005D004D003D00235
:0F08F300D001D000D0D0D082D083D0F0D0E0326E
:03003B00020A05B1
:100A0500C0E0C0F0C083C082C0D075D000C000C0B7
:100A150001C002C003C004C005C006C00790804ADB
:100A2500E0FFEF30E104D2808002C28090804AE08E
:100A3500FFEF30E0147BFF7A06795E1200A9908003
:100A45004AE0FFEF54FEFFEFF07BFF7A06796290F4
:100A5500804AE0FF90007BEFF01200A9D007D00696
:100A6500D005D004D003D002D001D000D0D0D082A0
:070A7500D083D0F0D0E03285
:03003300020AE2DC
:100AE200C0E0C0F0C083C082C0D075D000C000C0DA
:100AF20001C002C003C004C005C006C007D2809076
:100B020080E2E0FFEF30E2147BFF7A0679671200A1
:100B1200A99080E2E0FFEF54FBFFEFF0C280D00724
:100B2200D006D005D004D003D002D001D000D0D05E
:090B3200D082D083D0F0D0E03273
:1003A300758600439680120B3B1200207BFF7A0672
:1003B300796B1200A97BFF7A0679771200A97BFF7C
:1003C3007A06798D908051E0FF90007BEFF090806A
:1003D30059E0FF90007CEFF0908061E0FF90007D9A
:1003E300EFF0908069E0FF90007EEFF0908071E085
:1003F300FF90007FEFF0908079E0FF900080EFF0B6
:10040300908081E0FF900081EFF0908089E0FF9081
:100413000082EFF01200A97BFF7A0679F6908054F0
:10042300E0FF90007BEFF0908055E0FF90007CEFC1
:10043300F0908056E0FF90007DEFF0908057E0FF52
:1004430090007EEFF01200A97BFF7A07793290804B
:1004530041E0FF90007BEFF0908043E0FF90007C51
:10046300EFF0908044E0FF90007DEFF0908045E056
:10047300FF90007EEFF01200A97BFF7A077973905B
:1004830080E0E0FF90007BEFF09080E1E0FF9000E0
:100493007CEFF09080E2E0FF90007DEFF01200A986
:1004A3007BFF7A0779A2908049E0FF90007BEFF011
:1004B30090804AE0FF90007CEFF01200A9908051F9
:1004C300E4F09080597401F09080617402F09080A0
:1004D300697403F09080717404F09080797405F06E
:1004E3009080007403F09080017403F09080027494
:1004F30003F09080037403F09080047403F0908001
:10050300057403F09080067402F09080077402F083
:100513009080087481F090800E7406F0908050E40F
:10052300F0908058E4F0908060E4F0908068E4F00C
:10053300908070E4F0908078E4F0908054740AF036
:10054300908055E4F09080567463F0908057E4F007
:1005530090805C7414F090805DE4F090805E74632E
:10056300F090805FE4F0908064741EF0908065E406
:10057300F09080667463F0908067E4F090806C7410
:1005830028F090806DE4F090806E7463F090806F3B
:10059300E4F09080747432F0908075E4F09080768B
:1005A3007463F0908077E4F090807C743CF09080EA
:1005B3007DE4F090807E7463F090807FE4F090801F
:1005C3004074FFF0D2ADD2AF2090FD7F647E001265
:1005D3000A7C2090F3209009908074E02405F08039
:1005E300F490807CE02405F0908054E02405F090A2
:1005F300805CE02405F0908064E02405F090806C3A
:0D060300E02405F0908043743FF080BC229D
:10090200EF8DF0A4A8F0CF8CF0A428CE8DF0A42E09
:02091200FE22C3
:10091400EB9FF5F0EA9E42F0E99D42F0EC6480C85A
:0609240064809845F022FA
:0C092A00ECF0A3EDF0A3EEF0A3EFF02240
:10093600A8828583F0D083D08212094D12094D1208
:10094600094D12094DE473E493A3C583C5F0C5832D
:10095600C8C582C8F0A3C583C5F0C583C8C582C80B
:01096600226E
:10003E00E517247BF582E43400F583E00517229062
:10004E00007830220390007BE475F0011209BF02A4
:10005E000967201BE97F2ED21B8018EF540F2490C6
:10006E00D43440D4FF301F0BEF24BFB41A0050031A
:10007E002461FFE51860021518051BE51B700205CB
:10008E001A30220E900078E475F0011209BFEF02CB
:10009E0009AD020B677403D2228003E4C222F51766
:1000AE009000781209D6E4F518F51AF51BE51860DC
:1000BE00077F2012008180F57519FFC21CC21BC27A
:1000CE001DC21EC220C221C22312004DFF700D3070
:1000DE0022057F00120092AF1BAE1A22B4255FC21A
:1000EE00D5C21F12004DFF24D0B40A00501A75F06D
:1000FE000A781830D50508B6FF0106C6A426F620E4
:10010E00D5047002D21E80D924CFB41A00EF500449
:10011E00C2E5D21F020293D21C80C6D21B80C0D26F
:10012E001D80BCD2D580BAD22080B47F201200812F
:10013E00201D077401B5180040F112003EFF120099
:10014E00810200BBD223D221809512003EFB120009
:10015E003EFA12003EF94A4B700679647A037BFF31
:10016E00201D2EE518602A7E008E827583001209EE
:10017E008060060EEE651970F0C2D5EBC0E0EAC0E5
:10018E00E0E9C0E0EE1202DAD0E0F9D0E0FAD0E019
:10019E00FB120967FF60AAEBC0E0EAC0E0E9C0E02D
:1001AE00120081D0E02401F9D0E03400FAD0E0FB57
:1001BE00E5190460DCD519D980877BFF7A0279D6E0
:1001CE00D21D809C791080027908C221C22380083A
:1001DE00D2D5790A8004790AC2D5E519047002F5E0
:1001EE0019E4FAFDFEFF12003EFC7B08201C1312E0
:1001FE00003EFD7B10301B0A12003EFE12003EFF39
:10020E007B20EC3382D592D55013C3E4301B069F6E
:10021E00FFE49EFEE4201C039DFDE49CFCE4CBF871
:10022E00C21CEC700CCFCECDCCE824F8F870F38065
:10023E0017C3EF33FFEE33FEED33FDEC33FCEB3340
:10024E00FB994002FB0FD8E9EB301C05F8D0E0C457
:10025E0048B21CC0E00AEC4D4E4F78207B0070C2B5
:10026E00EAB5190040BCC0E01202DCD0F0D0E020AC
:10027E001C04C4C0E0C4B21CC0F012006AD0F0D599
:10028E00F0EB0200BB1209DF01585301D2580129CD
:10029E004C01254201D64F01DE4401DE49013E43A9
:0802AE0001E45501C84601C836
:1002B6004501C847038450012D2D01312E01542BD1
:1002C600013523015220036D2A00ED480000014C40
:1002D6003F3F3F00790AA2D5201E14302009B910ED
:1002E600020404B9080104A2D52021025001042009
:1002F6001D68921DB518005034C0E07F20301E19CD
:100306007F30A21D72217220500F120333C21DC20C
:1003160021C220C2237F30800F302003E9C0E012C3
:100326000081302003D0E0F9D0E0B518CC3020179A
:100336007F30B9100C1200817F58301F077F7880FC
:1003460003B90803120081301D057F2D0200817F4D
:10035600202023F87F2B2021F322921D80CF286EA8
:10036600756C6C2900D21C12003E301CF8C21C7839
:100376001830D50108F60200ED2D504349581200F9
:100386003E2403B405004001E490037F93120072FB
:0D039600743A120072D21E7518040201D2D2
:10096700BB010689828A83E0225002E722BBFE028E
:09097700E32289828A83E49322C1
:10098000BB010CE58229F582E5833AF583E022502C
:1009900006E92582F8E622BBFE06E92582F8E22276
:0D09A000E58229F582E5833AF583E4932290
:1009AD00BB010689828A83F0225002F722BBFE0129
:0209BD00F32223
:1009BF00F8E0FBA3A3E0F925F0F0E58215827002C1
:0709CF001583E0FA38F02265
:0909D600EBF0A3EAF0A3E9F02222
:1009DF00D083D082F8E4937012740193700DA3A3A7
:1009EF0093F8740193F5828883E4737402936860BB
:0609FF00EFA3A3A380DFBB
:00000001FF
