:030000000205EE08
:0C05EE00787FE4F6D8FD75812202063506
:100790000A0D4642464C473D2562750A0D005255EA
:0A07A0004E2D2D2D2D2D2D0D0A00DC
:0407BD0041005A009D
:0806E100900050EEF0A3EFF0D1
:1006E90090005212051F00000000900050E0FEA388
:1006F900E0FF7C007D0A1204EBEE3395E0FDFC90EF
:100709000052E0F8A3E0F9A3E0FAA3E0FBC3120466
:10071900FD502A900052E0FCA3E0FDA3E0FEA3E017
:10072900FF7B017A0079007800EF2BFFEE3AFEEDAE
:0D07390039FDEC38FC90005212051380AD24
:010746002290
:10074700900056E4F0A3E4F0900056E0FEA3E0FF2B
:10075700C3EF94A4EE648094865010900057E00491
:0B076700F07006900056E004F080DD0A
:010772002264
:03002300020003D5
:10000300C0E0C083C082309802C298309908C29978
:0D00130090005A7401F0D082D083D0E0320A
:10077300900058EFF0900058E0FF8F9CE59B5402E7
:0D078300FF7E00EF64024E70F3539BFD22D9
:1007AA00900059EFF0900059E0FF1207739000593A
:0307BA00E0FF223B
:0A002600759B80759DCC759E03222A
:0300330002067A48
:10067A00C0E0C0F0C083C082C0D075D000C000C046
:10068A0001C002C003C004C005C006C0077BFF7AD0
:10069A000779909080E2E0FF90002BEFF01200A122
:1006AA009080E2E0FFEF5404FF7E00EF64044E7096
:1006BA000B9080E2E0FFEF5400FFEFF0D007D00686
:1006CA00D005D004D003D002D001D000D0D0D0823F
:0706DA00D083D0F0D0E03224
:10039B00758600120747908051E4F09080597401E4
:1003AB00F09080617402F09080697403F09080711A
:1003BB007404F09080797405F09080007403F090D1
:1003CB0080017403F09080027403F0908003740337
:1003DB00F09080047403F09080057403F090800C0F
:1003EB007486F0D2949080097402F090800A748124
:1003FB00F090800E7406F0908050E4F0908058E4FA
:10040B00F0908060E4F0908068E4F0908070E4F00D
:10041B00908078E4F0908054740AF0908055E4F06A
:10042B009080567463F0908057E4F090805C741465
:10043B00F090805DE4F090805E7463F090805FE4F8
:10044B00F0908064741EF0908065E4F09080667488
:10045B0063F0908067E4F090806C7428F090806D6E
:10046B00E4F090806E7463F090806FE4F090807491
:10047B007432F0908075E4F09080767463F0908025
:10048B0077E4F090807C743CF090807DE4F0908079
:10049B007E7463F090807FE4F090804074FFF09066
:1004AB0080E174D5F09080E2E4F09080E0749FF0EE
:1004BB001200267BFF7A07799E1200A1D2AED2AF33
:1004CB002092FD7F3C7E001206E12092F3B2913028
:1004DB0092FD9080E2E4F090804074FFF080E12286
:1005FA0002039BE493A3F8E493A34003F68001F279
:10060A0008DFF48029E493A3F85407240CC8C33301
:10061A00C4540F4420C8834004F456800146F6DFD0
:10062A00E4800B01020408102040809007BDE47E9C
:10063A00019360BCA3FF543F30E509541FFEE493C5
:10064A00A360010ECF54C025E060A840B8E493A38C
:10065A00FAE493A3F8E493A3C8C582C8CAC583CAB7
:10066A00F0A3C8C582C8CAC583CADFE9DEE780BE6F
:0107C1000037
:1004EB00EF8DF0A4A8F0CF8CF0A428CE8DF0A42E25
:0204FB00FE22DF
:1004FD00EB9FF5F0EA9E42F0E99D42F0EC6480C876
:06050D0064809845F02215
:0C051300ECF0A3EDF0A3EEF0A3EFF0225B
:10051F00A8828583F0D083D0821205361205361259
:10052F000536120536E473E493A3C583C5F0C5837E
:10053F00C8C582C8F0A3C583C5F0C583C8C582C826
:01054F002289
:10003600E50D242BF582E43400F583E0050D2290CE
:10004600002830100390002BE475F0011205A80279
:1000560005502009E97F2ED2098018EF540F24900D
:10006600D43440D4FF300D0BEF24BFB41A00500334
:100076002461FFE50E6002150E0511E511700205FB
:100086001030100E900028E475F0011205A8EF025A
:1000960005960207AA7403D2108003E4C210F50D78
:1000A6009000281205BFE4F50EF510F511E50E6077
:1000B600077F2012007980F5750FFFC20AC209C2B8
:1000C6000BC20CC20EC20FC211120045FF700D30DA
:1000D60010057F0012008AAF11AE1022B4255FC250
:1000E600D5C20D120045FF24D0B40A00501A75F08F
:1000F6000A780E30D50508B6FF0106C6A426F620F6
:10010600D5047002D20C80D924CFB41A00EF500463
:10011600C2E5D20D02028BD20A80C6D20980C0D2B5
:100126000B80BCD2D580BAD20E80B47F2012007963
:10013600200B077401B50E0040F1120036FF1200C5
:10014600790200B3D211D20F8095120036FB12004D
:1001560036FA120036F94A4B7006795C7A037BFF51
:10016600200B2EE50E602A7E008E82758300120516
:100176006960060EEE650F70F0C2D5EBC0E0EAC00E
:10018600E0E9C0E0EE1202D2D0E0F9D0E0FAD0E029
:10019600FB120550FF60AAEBC0E0EAC0E0E9C0E050
:1001A600120079D0E02401F9D0E03400FAD0E0FB67
:1001B600E50F0460DCD50FD980877BFF7A0279CE04
:1001C600D20B809C791080027908C20FC211800878
:1001D600D2D5790A8004790AC2D5E50F047002F5F2
:1001E6000FE4FAFDFEFF120036FC7B08200A13120C
:1001F6000036FD7B1030090A120036FE120036FF6B
:100206007B20EC3382D592D55013C3E43009069F88
:10021600FFE49EFEE4200A039DFDE49CFCE4CBF88B
:10022600C20AEC700CCFCECDCCE824F8F870F3807F
:1002360017C3EF33FFEE33FEED33FDEC33FCEB3348
:10024600FB994002FB0FD8E9EB300A05F8D0E0C471
:1002560048B20AC0E00AEC4D4E4F78207B0070C2CF
:10026600EAB50F0040BCC0E01202D4D0F0D0E020C6
:100276000A04C4C0E0C4B20AC0F0120062D0F0D5CD
:10028600F0EB0200B31205C801505301CA58012110
:100296004C011D4201CE4F01D64401D649013643D9
:0802A60001DC5501C04601C056
:1002AE004501C047037C5001252D01292E014C2B01
:1002BE00012D23014A2003652A00E5480000014470
:1002CE003F3F3F00790AA2D5200C14300E09B91019
:1002DE00020404B9080104A2D5200F025001042023
:1002EE000B68920BB50E005034C0E07F20300C1915
:1002FE007F30A20B720F720E500F12032BC20BC265
:10030E000FC20EC2117F30800F300E03E9C0E01213
:10031E000079300E03D0E0F9D0E0B50ECC300E17D8
:10032E007F30B9100C1200797F58300D077F78801E
:10033E0003B90803120079300B057F2D0200797F77
:10034E00202011F87F2B200FF322920B80CF286EE6
:10035E00756C6C2900D20A120036300AF8C20A787F
:10036E000E30D50108F60200E52D50434958120013
:10037E00362403B405004001E49003779312006A1B
:0D038E00743A12006AD20C750E040201CA06
:10055000BB010689828A83E0225002E722BBFE02A9
:09056000E32289828A83E49322DC
:10056900BB010CE58229F582E5833AF583E0225047
:1005790006E92582F8E622BBFE06E92582F8E22291
:0D058900E58229F582E5833AF583E49322AB
:10059600BB010689828A83F0225002F722BBFE0144
:0205A600F3223E
:1005A800F8E0FBA3A3E0F925F0F0E58215827002DC
:0705B8001583E0FA38F02280
:0905BF00EBF0A3EAF0A3E9F0223D
:1005C800D083D082F8E4937012740193700DA3A3C2
:1005D80093F8740193F5828883E4737402936860D6
:0605E800EFA3A3A380DFD6
:00000001FF
