:100000000200060200B67581071202E3E582600372
:100010000200037900E94400601B7A009004207814
:100020009975A003E493F2A308B8000205A0D9F4DF
:10003000DAF275A0FFE478FFF6D8FD7800E8440016
:10004000600A790175A000E4F309D8FC7898E844C7
:1000500003600C7904900001E4F0A3D8FCD9FA0203
:10006000000385829910990280FB22AD82AE83AF96
:10007000F08D828E838FF01202C7FC60188C820D87
:10008000BD00010EC007C006C005120062D005D039
:1000900006D00780DC227E007F007CE87D031CBC4C
:1000A000FF011DEC4D70F70EBE00010FC3EE94F47E
:1000B000EF940140E5227586004396809080077496
:1000C00006F0908006F0C29FD29ED29CC298C29940
:1000D000C2CA75C90075CACC75CBFF85CACC85CBA1
:1000E000CDD2CAD2CDD2CC1200969002E775F08064
:1000F00012006B90030975F08012006B900320755D
:10010000F08012006B90033575F08012006B7E005A
:100110007F00EE2401F582EF3400F5838E05EDF0CB
:100120000EBE00010FC3EE9498EF940340E47E00EE
:100130007F007C007D00EC2401F582ED3400F58326
:10014000E08C02B5020280050EBE00010F0CBC005F
:10015000010DC3EC9498ED940340DBEE4F700B90CF
:10016000035775F08012006B800990036C75F08066
:1001700012006B7E007F00EE2401F582EF3400F563
:10018000838E05EDF4F00EBE00010FC3EE9498EFE0
:10019000940340E37E007F007C007D00EC2401F5A9
:1001A00082ED3400F583E0FB8C02EAF4FAEBB50251
:1001B0000280050EBE00010F0CBC00010DC3EC94C3
:1001C00098ED940340D6EE4F700B90038175F0804C
:1001D00012006B800990039675F08012006B7E0010
:1001E0007F00EE2401F582EF3400F5837455F00EA4
:1001F000BE00010FC3EE9498EF940340E57E007FAC
:10020000007C007D00EC2401F582ED3400F583E0F4
:10021000FBBB550280050EBE00010F0CBC00010D9A
:10022000C3EC9498ED940340DCEE4F700B9003AB5D
:1002300075F08012006B80099003C075F080120089
:100240006B7E007F00EE2401F582EF3400F58374AD
:10025000AAF00EBE00010FC3EE9498EF940340E5A0
:100260007E007F007C007D00EC2401F582ED3400EF
:10027000F583E0FBBBAA0280050EBE00010F0CBC9B
:1002800000010DC3EC9498ED940340DCEE4F700B2D
:100290009003D575F08012006B80099003EA75F029
:1002A0008012006B9003FF75F08012006B900413B6
:1002B00075F08012006B75822E1200621200961289
:1002C000009612009680EF20F71430F6148883A869
:1002D0008220F507E6A88375830022E280F7E49385
:1002E00022E022758200220D0A3D3D3D3D3D3D3D0F
:1002F0003D3D3D3D3D3D3D3D3D3D3D3D3D3D3D3D2E
:100300003D3D3D3D3D3D0D0A0020205753353146D2
:10031000363234302052414D20546573740D0A003A
:10032000202078646174613A203932302062797417
:1003300065730D0A003D3D3D3D3D3D3D3D3D3D3D2F
:100340003D3D3D3D3D3D3D3D3D3D3D3D3D3D3D3DDD
:100350003D3D0D0A0D0A005061747465726E2030C7
:100360002D46463A20504153530D0A005061747493
:1003700065726E20302D46463A204641494C0D0AA2
:10038000005061747465726E20696E763A20205058
:100390004153530D0A005061747465726E20696E8A
:1003A000763A20204641494C0D0A0050617474652C
:1003B000726E20307835353A20504153530D0A0083
:1003C0005061747465726E20307835353A2046413C
:1003D000494C0D0A005061747465726E203078418A
:1003E000413A20504153530D0A00506174746572B4
:1003F0006E20307841413A204641494C0D0A000DAB
:100400000A4275726E20766572696679204F4B21BB
:100410000D0A004865617274626561743A0D0A00E4
:00000001FF
