:030000000200E11A
:0C00E100787FE4F6D8FD75810F02000363
:040071008E0A8F0B59
:10007500E4F50FF50EF50DF50CAE0AAF0B7C007D22
:100085000A1200B9EE3395E0FDFCAB0FAA0EA90DDF
:10009500A80CC31200CB501BE4FAF9F8E50F2401B4
:1000A500F50FEA350EF50EE9350DF50DE8350CF5CC
:0300B5000C80C6F6
:0100B8002225
:10000300E4F5864396809080007402F0A3F0A3F099
:10001300A3F0A3F0A3F0A3F0A3F0A3F0A3F0A3F045
:10002300A3F0A3F0A3F0A3F0A3F0A3F0A3F0B28096
:10003300B281B282B283B284B285B286B287B29001
:10004300B291B292B293B294B295B296B297B2A071
:10005300B2A1750800750905E5091509AE08700216
:0E00630015084E60C97FF47E0112007180EA1C
:1000B900EF8DF0A4A8F0CF8CF0A428CE8DF0A42E5B
:0200C900FE2215
:1000CB00EB9FF5F0EA9E42F0E99D42F0EC6480C8AC
:0600DB0064809845F0224C
:00000001FF
