:0300000002058B6B
:0C058B00787FE4F6D8FD7581680205D287
:10084C005354522D2D2D25730D0A0031343A31306D
:10085C003A353100636F6C6F723D2562750D0A007D
:100791004C0000FF0000C0FFFFFFFF8000A0004CE5
:1007A100001800FF00C0FFC0FF612AFF20004C00BD
:1007B1000C0000FFC0FFCBF0002AFFF000014C004D
:0907C100014A00014B0001220174
:0E086C00E4FFFE0FBF00010EBE06F8BFA4F5AC
:01087A00225B
:0F087B008E4E8F4FD28EE54F454E70FAC28E22B1
:080896008F6812089EAF682272
:03001B00020003DD
:10000300C0E0E54F154F7002154E758DF8758B30B6
:03001300D0E03208
:0300230002088A46
:0C088A00309808C29885994D754C0132D9
:03002B000207FBCE
:1007FB00C0E0C083C082908045E030E507E4F0752F
:10080B004B01B290908045E030E709E0547FF075E2
:0B081B004B01B291D082D083D0E032BC
:10071500EF6003752201E5226025308206308303F0
:1007250020841C7F0A7E0012087BE4F522208203C8
:100735007F01222083037F022220840F7F03223042
:0D07450082093083063084037522017F0095
:010752002284
:10067800E4FEEEC39440748094805050EE6F702A6C
:10068800740C2DF582E43400F583E09080D2F07488
:10069800002DF582E43400F583E09080D3F07418DF
:1006A8002DF582E43400F5838013900017E09080E4
:1006B800D2F090000BE09080D3F0900023E090807F
:0C06C800D4F0E54B60FCE4F54B0E80A67E
:0106D4002203
:10038A00E4F58643968090800504F0908004F0900E
:10039A008003F0908002F090800804F0A3F090802F
:1003AA00077406F0908006F0120826120753120707
:1003BA00CB7557FF7558087559577BFF7A08794CE2
:1003CA00120090D2ADD2AFE4FF1207158F50E54C60
:1003DA0064017007F54CAF4D12089EE55064017038
:1003EA0067F553F551F552740C254AF582E4340049
:1003FA00F583E09080D2F07400254AF582E4340057
:10040A00F583E09080D3F07418254AF582E434002D
:10041A00F583E09080D4F0E54B60FCE4F54B05529F
:10042A00E552700205516440455170BB054AC3E567
:10043A004A940C748094804003E4F54A7BFF7A085E
:10044A007960854A57120090E5506402700375532B
:10045A0001E5536061E4F551F552740C254AF582C1
:10046A00E43400F583E09080D2F07400254AF582E6
:10047A00E43400F583E09080D3F07418254AF582BD
:10048A00E43400F583E09080D4F0E54B60FCE4F5B9
:10049A004B0552E552700205516440455170BB0547
:1004AA004AC3E54A940C748094804003E4F54A7F79
:1004BA00647E0012087BE550640360030203D1F5F1
:1004CA0053FCECC39440748094805011AF04AD4A3D
:1004DA001206787F067E0012087B0C80E5054AC367
:1004EA00E54A940B7480948050030203D1E4F54AE0
:0304FA000203D129
:1006D500E470380414601514601B14602124037041
:1006E5002A5389F0758CC1758A10801F438901755D
:1006F5008CF8758A30438902758A38758C38438938
:1007050003758A38758C38D28ED2ABD28CD2A92299
:1007CB00E4702A0414601214601A2402701F5389F7
:1007DB000F758DC1758B108014438910758DF8754D
:1007EB008B308009438920758B38758D38D2AB22BD
:10061700E4705B14601F14603024FE603F24047094
:100627004D75CBC175CA8085CACC85CBCD75C980C0
:10063700E4F5C8803975CBC175CA8085CACC85CB2E
:10064700CD75C98175C8048025E4F5CBF5CA85CA7F
:10065700CC85CBCD75C98075C80D801275CBFF755C
:10066700CAF885CACC85CBCD75C98275C80CD2AD01
:010677002260
:100753009080017404F0908041E4F0908043F0A312
:10076300F0A3F090808074C0F0A37401F0908086B1
:100773007413F0A3E4F09080847405F0A3E4F09084
:0E07830080D074DCF09080407440F0D2AD2243
:10082600C29FD29EE4F59AD29CC298C299C2CAF5DA
:10083600C975CACC75CBFF85CACC85CBCDD2CAD2F9
:06084600CDD2CCD2AC22A1
:08089E008F993099FDC29922E7
:0708A60075FA0475880322B6
:0708AD0075FB0475880C22A5
:0400160075DA052270
:1005970002038AE493A3F8E493A34003F68001F2ED
:1005A70008DFF48029E493A3F85407240CC8C33365
:1005B700C4540F4420C8834004F456800146F6DF34
:1005C700E4800B0102040810204080900791E47E2C
:1005D700019360BCA3FF543F30E509541FFEE49329
:1005E700A360010ECF54C025E060A840B8E493A3F0
:1005F700FAE493A3F8E493A3C8C582C8CAC583CA1B
:10060700F0A3C8C582C8CAC583CADFE9DEE780BED2
:0107CA00002E
:10002E00E5632457F8E605632278543007027857C3
:10003E00E475F0011205550204FD2000EB7F2ED26F
:10004E00008018EF540F2490D43440D4FF30040BAA
:10005E00EF24BFB41A0050032461FFE5646002155B
:10006E00640567E5677002056630070D7854E47520
:10007E00F001120555EF0205430208967403D207EC
:10008E008003E4C207F5638B548A558956E4F56400
:10009E00F566F567E56460077F2012006980F575E7
:1000AE0065FFC201C200C202C203C205C206C20877
:1000BE00120037FF700D3007057F0012007AAF6710
:1000CE00AE6622B4255FC2D5C204120037FF24D01B
:1000DE00B40A00501A75F00A786430D50508B6FFD8
:1000EE000106C6A426F620D5047002D20380D924B8
:1000FE00CFB41A00EF5004C2E5D20402027AD20144
:10010E0080C6D20080C0D20280BCD2D580BAD205C1
:10011E0080B47F201200692002077401B56400408C
:10012E00F112002EFF1200690200A2D208D2068040
:10013E009512002EFB12002EFA12002EF94A4B7069
:10014E0006794B7A037BFF20022EE564602A7E003F
:10015E008E8275830012051660060EEE656570F0D0
:10016E00C2D5EBC0E0EAC0E0E9C0E0EE1202C1D0B9
:10017E00E0F9D0E0FAD0E0FB1204FDFF60AAEBC07C
:10018E00E0EAC0E0E9C0E0120069D0E02401F9D055
:10019E00E03400FAD0E0FBE5650460DCD565D9807B
:1001AE00877BFF7A0279BDD202809C79108002791A
:1001BE0008C206C2088008D2D5790A8004790AC21C
:1001CE00D5E565047002F565E4FAFDFEFF12002E1A
:1001DE00FC7B0820011312002EFD7B1030000A124A
:1001EE00002EFE12002EFF7B20EC3382D592D550CE
:1001FE0013C3E43000069FFFE49EFEE42001039D3E
:10020E00FDE49CFCE4CBF8C201EC700CCFCECDCC5F
:10021E00E824F8F870F38017C3EF33FFEE33FEEDEA
:10022E0033FDEC33FCEB33FB994002FB0FD8E9EBCB
:10023E00300105F8D0E0C448B201C0E00AEC4D4EE2
:10024E004F78207B0070C2EAB5650040BCC0E0125A
:10025E0002C3D0F0D0E0200104C4C0E0C4B201C09B
:10026E00F0120052D0F0D5F0EB0200A2120565019B
:10027E003F5301B95801104C010C4201BD4F01C54D
:0F028E004401C54901254301CB5501AF4601AFDE
:10029D004501AF47036B5001142D01182E013B2B67
:1002AD00011C2301392003542A00D44800000133D6
:1002BD003F3F3F00790AA2D5200314300509B9103C
:1002CD00020404B9080104A2D5200602500104203D
:1002DD0002689202B564005034C0E07F20300319EB
:1002ED007F30A20272067205500F12031AC202C2AB
:1002FD0006C205C2087F30800F300503E9C0E01249
:10030D000069300503D0E0F9D0E0B564CC300517B5
:10031D007F30B9100C1200697F583004077F788048
:10032D0003B908031200693002057F2D0200697FB1
:10033D00202008F87F2B2006F322920280CF286E12
:10034D00756C6C2900D20112002E3001F8C20178B3
:10035D006430D50108F60200D42D504349581200DF
:10036D002E2403B405004001E49003669312005A55
:0D037D00743A12005AD2037564040201B9EB
:1004FD00BB010689828A83E0225002E722BBFE02FD
:09050D00E32289828A83E493222F
:10051600BB010CE58229F582E5833AF583E022509A
:1005260006E92582F8E622BBFE06E92582F8E222E4
:0D053600E58229F582E5833AF583E49322FE
:10054300BB010689828A83F0225002F722BBFE0197
:02055300F32291
:10055500FAE6FB0808E6F925F0F618E6CA3AF622A7
:10056500D083D082F8E4937012740193700DA3A325
:1005750093F8740193F5828883E473740293686039
:06058500EFA3A3A380DF39
:00000001FF
