:030000000207BC38
:0C07BC00787FE4F6D8FD75812702080361
:100562000D0A5354522D2D2D25730D0A0031353AA3
:1005720035363A353700506F776572206F6E2072CC
:1005820065676973746572204144434F4E203D2074
:100592002562782C204144434647203D202562783D
:1005A2002C204144435043203D202562783B0D0AD4
:1005B200005265666572656E636520766F6C746164
:1005C200676520736F757263653A20496E74657250
:1005D2006E616C20312E365620617320726566651D
:1005E20072656E636520766F6C746167650D0A00D3
:1005F2005265666572656E636520766F6C746167BD
:100602006520736F757263653A2065787465726EE2
:10061200616C205644440D0A005265666572656E2F
:10062200636520766F6C7461676520736F757263A2
:10063200653A2065787465726E616C205652454643
:100642000D0A005265666572656E636520766F6C91
:100652007461676520736F757263653A204B6565D7
:10066200700D0A004144432073616D706C696E67BE
:100672002074696D652041544D5328302D37293A35
:10068200202562640D0A5A6F6F6D20736574746958
:100692006E677328302D307862293A2030782562CF
:1006A200780D0A006368616E6E656C203D202562DC
:1006B200783B0D0A00436F6E76657273696F6E2028
:1006C20074696D656F7574206572726F720D0A00C0
:1006D2006D6375206765742061646356616C203DAB
:1006E2002030782534582C2020202020202020253E
:1006F200640D0A0041444320496E7465727275703C
:04070200740D0A0068
:040848007F647E004B
:04084C008E0C8F0D72
:10085000E4F511F510F50FF50EAE0CAF0D7C007D33
:100860000A120706EE3395E0FDFCAB11AA10A90FA2
:10087000A80EC3120718501BE4FAF9F8E511240179
:10088000F511EA3510F510E9350FF50FE8350EF5DD
:030890000E80C611
:010893002242
:0E08B200E4FFFE0FBF00010EBE06F8BFA4F566
:0108C0002215
:0E08C100E4FFFE0FBF00010EBE45F8BF24F598
:0108CF002206
:1003A200E4F50AF50BF5864396801208C1908002A7
:1003B2007406F090800EF012091890800F7404F009
:1003C200908011F0908007F0908006F0908005F008
:1003D200908004F0908003F0908000F0908008F00C
:1003E200A3F0A3F090800DF09080017402F075C22A
:1003F200011208DE7FB87E0B120894120922D2E99C
:1004020043E801D2AF750FFF75100575116F7BFFC1
:100412007A0579621200A87BFF7A05797885C00F88
:1004220085C11085C5111200A8E5C05430FFC4541F
:100432000F750800F509450870087BFF7A0579B346
:100442008024E5096401450870087BFF7A0579F28A
:100452008014E509640245087BFF70067A06791B61
:1004620080047A0679451200A87BFF7A067966E550
:10047200C15470FFC4540FF50FE5C1540FF51012AB
:1004820000A87BFF7A0679A685C20F1200A8908089
:10049200007481F030800302054675080075090575
:1004A200E5091509AE08700215084E6005120848E4
:1004B20080EE308003020546E4F50AF50BF526F5D9
:1004C2002743C0807F01FE12084CE5C020E01F12C6
:1004D2000848050BE50BAE0A7002050A14C394C85E
:1004E200EE940040E57BFF7A0679B71200A87F01FF
:1004F2007E0012084CAFC4EF75F010A4FDAFC3E448
:10050200C4F854F0C868FEEFC4540F48FFEE45F03B
:10051200F526EF4DF5277BFF7A0679D285260FF572
:1005220010852611F5121200A853C0FE7508007539
:10053200090AE5091509AE08700215084E60051290
:10054200084880EEE5C55401640160030204967B0D
:10055200FF7A0679F61200A853C5FEB2810204960C
:0608D000012200012300DB
:03003B00020003BD
:10000300C0E0E59B540164017009539BFE859C2469
:10001300752201E59B540264027006539BFD752310
:0400230001D0E032F6
:0A090E00E4F5238F9CE52360FC2232
:05003E00AE0702090EEF
:0A091800759BD0759DCC759E0322DF
:0708D60001250002260000CD
:0C08DE00E4F5C0F5C175C01E75C17322A1
:0C08EA00E4F5C0F5C175C00E75C17322A5
:0C08F600E4F5C0F5C175C05E75C1732249
:0C090200E4F5C0F5C175C05E75C1F322BC
:030929008FC22258
:10089400AD07AC06ECC4F854F0C8EDC4540F48F5E9
:0E08A400C7ED540FC4F8540FC868FF8FC6226A
:07092200E4F5C575C5A02234
:0300430002002791
:10002700C0E0E5C054016401700553C0FEB281D041
:02003700E032B5
:1007C8000203A2E493A3F8E493A34003F68001F2A2
:1007D80008DFF48029E493A3F85407240CC8C33332
:1007E800C4540F4420C8834004F456800146F6DF01
:1007F800E4800B01020408102040809008D0E47EB9
:10080800019360BCA3FF543F30E509541FFEE493F5
:10081800A360010ECF54C025E060A840B8E493A3BC
:10082800FAE493A3F8E493A3C8C582C8CAC583CAE7
:10083800F0A3C8C582C8CAC583CADFE9DEE780BE9F
:0108DD00001A
:10070600EF8DF0A4A8F0CF8CF0A428CE8DF0A42E07
:02071600FE22C1
:10071800EB9FF5F0EA9E42F0E99D42F0EC6480C858
:0607280064809845F022F8
:10004600E51B240FF8E6051B22780C300702780F13
:10005600E475F00112078602072E2000EB7F2ED2F0
:10006600008018EF540F2490D43440D4FF30040B92
:10007600EF24BFB41A0050032461FFE51C6002158B
:100086001C051FE51F7002051E30070D780CE47570
:10009600F001120786EF02077402003E7403D207CE
:1000A6008003E4C207F51B8B0C8A0D890EE4F51C50
:1000B600F51EF51FE51C60077F2012008180F5758F
:1000C6001DFFC201C200C202C203C205C206C208A7
:1000D60012004FFF700D3007057F00120092AF1F10
:1000E600AE1E22B4255FC2D5C20412004FFF24D033
:1000F600B40A00501A75F00A781C30D50508B6FF08
:100106000106C6A426F620D5047002D20380D9249F
:10011600CFB41A00EF5004C2E5D204020292D20113
:1001260080C6D20080C0D20280BCD2D580BAD205A9
:1001360080B47F201200812002077401B51C0040A4
:10014600F1120046FF1200810200BAD208D20680E0
:1001560095120046FB120046FA120046F94A4B7009
:100166000679637A037BFF20022EE51C602A7E0057
:100176008E8275830012074760060EEE651D70F0CD
:10018600C2D5EBC0E0EAC0E0E9C0E0EE1202D9D089
:10019600E0F9D0E0FAD0E0FB12072EFF60AAEBC030
:1001A600E0EAC0E0E9C0E0120081D0E02401F9D025
:1001B600E03400FAD0E0FBE51D0460DCD51DD980F3
:1001C600877BFF7A0279D5D202809C7910800279EA
:1001D60008C206C2088008D2D5790A8004790AC204
:1001E600D5E51D047002F51DE4FAFDFEFF1200467A
:1001F600FC7B08200113120046FD7B1030000A121A
:100206000046FE120046FF7B20EC3382D592D55085
:1002160013C3E43000069FFFE49EFEE42001039D25
:10022600FDE49CFCE4CBF8C201EC700CCFCECDCC47
:10023600E824F8F870F38017C3EF33FFEE33FEEDD2
:1002460033FDEC33FCEB33FB994002FB0FD8E9EBB3
:10025600300105F8D0E0C448B201C0E00AEC4D4ECA
:100266004F78207B0070C2EAB51D0040BCC0E0128A
:1002760002DBD0F0D0E0200104C4C0E0C4B201C06B
:10028600F012006AD0F0D5F0EB0200BA1207960120
:10029600575301D15801284C01244201D54F01DDA5
:0F02A6004401DD49013D4301E35501C74601C74E
:1002B5004501C747038350012C2D01302E01532BD7
:1002C500013423015120036C2A00EC480000014B46
:1002D5003F3F3F00790AA2D5200314300509B91024
:1002E500020404B9080104A2D52006025001042025
:1002F50002689202B51C005034C0E07F203003191B
:100305007F30A20272067205500F120332C202C27A
:1003150006C205C2087F30800F300503E9C0E01230
:100325000081300503D0E0F9D0E0B51CCC300517CD
:100335007F30B9100C1200817F583004077F788018
:1003450003B908031200813002057F2D0200817F69
:10035500202008F87F2B2006F322920280CF286EFA
:10036500756C6C2900D2011200463001F8C2017883
:100375001C30D50108F60200EC2D504349581200F7
:10038500462403B405004001E490037E93120072F5
:0D039500743A120072D203751C040201D1EB
:10072E00BB010689828A83E0225002E722BBFE02C9
:09073E00E32289828A83E49322FC
:10074700BB010CE58229F582E5833AF583E0225067
:1007570006E92582F8E622BBFE06E92582F8E222B1
:0D076700E58229F582E5833AF583E49322CB
:10077400BB010689828A83F0225002F722BBFE0164
:02078400F3225E
:10078600FAE6FB0808E6F925F0F618E6CA3AF62274
:10079600D083D082F8E4937012740193700DA3A3F2
:1007A60093F8740193F5828883E473740293686006
:0607B600EFA3A3A380DF06
:00000001FF
