:03000000020B826E
:0C0B8200787FE4F6D8FD758121020BC9D4
:100F05004D45434F4E3D30582542582C20504144C5
:100F1500523D3058254258200D0A00636F64653AEA
:100F25000D0A000D0A002542582000646174613ADB
:100F35000D0A00636F646520D0A3D1E9BACD0D0A0F
:100F450000693D25782C20256278256278002025CA
:100F5500627800256278006461746120D0A3D1E9CC
:0D0F6500BACD0072756E3D3D3D3D0D0A0098
:100A7900608000000000000000000000000000008D
:100A8900000000000000000000000000000000005D
:100A9900000000000000000000000000000000004D
:100AA900000000000000000000000000000000003D
:100AB900000000000000000000000000000000002D
:100AC900000000000000000000000000000000001D
:100AD900000000000000000000000000000000000D
:100AE90000000000000000000000000000000000FD
:100AF900000000006080008000000000000000008D
:100B090000000000000000000000000000000000DC
:100B190000000000000000000000000000000000CC
:100B290000000000000000000000000000000000BC
:100B390000000000000000000000000000000000AC
:100B4900000000000000000000000000000000009C
:100B5900000000000000000000000000000000008C
:100B6900000000000000000000000000000000007C
:080B7900000000000000000074
:0E109700E4FFFE0FBF00010EBE06F8BFA4F579
:0110A5002228
:080F7200900100EEF0A3EFF086
:100F7A00A31209D700000000900100E0FEA3E0FFE1
:100F8A007C007D0A1209A3EE3395E0FDFCA3E0F88C
:100F9A00A3E0F9A3E0FAA3E0FBC31209B550279036
:100FAA000102E0FCA3E0FDA3E0FEA3E0FFE4FAF9FE
:100FBA00F8EF2401FFEA3EFEE93DFDE83CFC900122
:060FCA00021209CB80B207
:010FD00022FE
:0710A6007F0D1210AD7F0A5F
:0810AD008F993099FDC29922D0
:0510B500AE070210ADC2
:060FD100900102A3E0FF05
:020FD700AE0763
:100FD900EEC4540FFDD3940974809480ED40042429
:100FE9003780022430FF1210ADEE540FFDD394095F
:100FF90074809480ED4004243780022430FF12105D
:06100900AD7F200210ADD6
:100368007BFF7A0F7905908300E0900109F0908374
:1003780005E090010AF012006E900104E4F0A37405
:1003880030F0900104E0FEA3E0FFC39440EE6480E7
:1003980094804003020682908305EFF07BFF7A0F7A
:1003A8007905908300E0900109F0908305E09001C1
:1003B8000AF012006E7BFF7A0F792012006E90010E
:1003C80002E4F0A37430F0908305E0FD900102E0B0
:1003D800FEA3E0FFC39D7480F8EE6480984003029A
:1003E80005137D017C00120E1D120FD17BFF7A0FC1
:1003F800792812006EE4900100F0A3F0900100E06B
:10040800FEA3E0FFC39480EE648094805020A3A3F1
:10041800E0FD74802FF58274003EF583EDF09001C5
:1004280001E004F070D6900100E004F080CE7B017A
:100438007A007980900102E0FEA3E07807C333CE0A
:1004480033CED8F9FDAC0690010BE4F0A37480F02C
:10045800120C0EE4900100F0A3F0900100E0FEA35E
:10046800E0FFC39480EE64809480501C74002FF5E4
:100478008274003EF583E4F0900101E004F070DA44
:10048800900100E004F080D27B017A0079009001AD
:1004980002E0FEA3E07807C333CE33CED8F9FDAC33
:1004A8000690010BE4F0A37480F0120D26E490018D
:1004B80000F0A3F0900100E0FEA3E0FFC39480EEFB
:1004C8006480948050287BFF7A0F792B74002FF575
:1004D8008274003EF583E0900109F012006E9001ED
:1004E80001E004F070CE900100E004F080C67BFFCC
:1004F8007A0F792812006E900103E004F06003027D
:1005080003CF900102E004F00203CF7BFF7A0F795A
:100518003012006EE4900102F0A3F0908305E0FF32
:10052800C374409FFDE49400FC900102E0FEA3E048
:10053800FFC39DEC6480F8EE648098400302066E69
:100548007D017C00120E91120FD17BFF7A0F792862
:1005580012006EE4900100F0A3F0900100E0FEA309
:10056800E0FFC39480EE648094805020A3A3E0FD54
:1005780074802FF58274003EF583EDF0900101E060
:1005880004F070D6900100E004F080CE7B017A0080
:100598007980900102E0FEA3E07807C333CE33CE22
:1005A800D8F9FDAC0690010BE4F0A37480F0120CAE
:1005B8009AE4900100F0A3F0900100E0FEA3E0FFB0
:1005C800C39480EE64809480501C74002FF582746C
:1005D800003EF583E4F0900101E004F070DA900148
:1005E80000E004F080D27B017A007900900102E0FB
:1005F800FEA3E07807C333CE33CED8F9FDAC06901E
:10060800010BE4F0A37480F0120DA2E4900100F055
:10061800A3F0900100E0FEA3E0FFC39480EE6480A5
:10062800948050287BFF7A0F792B74002FF5827401
:10063800003EF583E0900109F012006E900101E0A0
:1006480004F070CE900100E004F080C67BFF7A0FC2
:10065800792812006E900103E004F0700690010200
:10066800E004F0020523900105E004F060030203B2
:0A0678008A900104E004F002038AF6
:010682002255
:1007FC009083057480F07BFF7A0F7905908300E07D
:10080C00900109F0908305E090010AF012006E7BD4
:10081C00FF7A0F793812006EE4900100F0A3F0908B
:10082C008305E0FF900100E0FCA3E0FDC39FEC9486
:10083C00004003020953ED75F080A4908306F0AEDE
:10084C0004ED7807C333CE33CED8F9EE908307F09E
:10085C00908301740CF07BFF7A0F7946900109ECC0
:10086C00F0A3EDF0908309E090010BF0908308E089
:10087C0090010CF012006EE4900102F0A3F09001D4
:10088C0002E0FEA3E0FFC39480EE9400501C7400C1
:10089C002FF58274003EF583E4F0900103E004F040
:1008AC0070DC900102E004F080D47B017A007900C6
:1008BC00900100E0FEA3E07807C333CE33CED8F925
:1008CC00FDAC0690010BE4F0A37480F0120D26E44D
:1008DC00900102F0A3F0A3F0900104E0FFC3948018
:1008EC0074809480502174002FF582E43400F583D9
:1008FC00E0FF900103E02FF0900102E03400F09053
:10090C000104E004F080D1900102E0900104F07B3E
:10091C00FF7A0F7953900109F012006E900102A337
:10092C00E0A3F07BFF7A0F7958900109F012006E6A
:10093C001210A6900101E004F0600302082B900154
:07094C0000E004F002082B9B
:010953002281
:100683007BFF7A0F7905908300E0900109F0908356
:1006930005E090010AF012006E9083057430F07B40
:1006A300FF7A0F7905908300E0900109F0908305AC
:1006B300E090010AF012006E7BFF7A0F795C120062
:1006C3006EE4900100F0A3F0908305E0FFC3748013
:1006D3009FFFE49400FE900100E0FCA3E0FDC39FB4
:1006E300EC9E40030207FBED75F080A4908306F0B7
:1006F300AE04ED7807C333CE33CED8F9EE9083073B
:10070300F09083017408F07BFF7A0F79469001091A
:10071300ECF0A3EDF0908309E090010BF0908308D7
:10072300E090010CF012006EE4900102F0A3F0904F
:100733000102E0FEA3E0FFC39480EE9400501C741A
:10074300002FF58274003EF583E4F0900103E0048A
:10075300F070DC900102E004F080D47B017A007930
:1007630000900100E0FEA3E07807C333CE33CED878
:10077300F9FDAC0690010BE4F0A37480F0120DA216
:10078300E4900102F0A3F0A3F0900104E0FFC3940E
:100793008074809480502174002FF582E43400F536
:1007A30083E0FF900103E02FF0900102E03400F0BA
:1007B300900104E004F080D1900102E0900104F084
:1007C3007BFF7A0F7953900109F012006E900102BA
:1007D300A3E0A3F07BFF7A0F7958900109F0120090
:1007E3006E1210A6900101E004F060030206CB90A4
:0807F3000100E004F00206CB56
:0107FB0022DB
:10107500C29FD29ED29CC298C299C2CAE4F5C975D4
:10108500CAFE75CBFF85CACC85CBCDD2CAD2CDD20F
:02109500CC226B
:10100F00E4F5864396801210979080087402F09052
:10101F0080077407F0908006F01210757BFF7A0F2F
:10102F00796812006E1203681207FC120683B290E1
:09103F007FE87E03120F7280F5B8
:080E1D00900106ECF0A3EDF0DA
:100E2500E4FDFC9083047412F07434F0EF7807C38A
:100E350033CE33CED8F9FF900108EEF0A3EFF0E4FE
:100E4500FCFDD3900107E09D900106E09C4033ED49
:100E550075F080A4FF900108E0FAA3E0FB2F9083D2
:100E650006F0AE04ED7807C333CE33CED8F92BEABE
:100E75003E908307F09083017407F00DBD00010CCF
:0B0E850080C09083047443F074FFF001
:010E9000223F
:080E9100900106ECF0A3EDF066
:100E9900E4FDFC9083047412F07456F0EF7807C3F4
:100EA90033CE33CED8F9FF900108EEF0A3EFF0E48A
:100EB900FCFDD3900107E09D900106E09C4033EDD5
:100EC90075F080A4FF900108E0FAA3E0FB2F90835E
:100ED90006F0AE04ED7807C333CE33CED8F92BEA4A
:100EE9003E908307F09083017403F00DBD00010C5F
:0B0EF90080C09083047465F074FFF06B
:010F040022CA
:100C0E00900106EBF0A3EAF0A3E9F0A3ECF0A3ED5C
:010C1E00F0E5
:100C1F00E490010DF0A3F09083047412F07434F09B
:100C2F009083017406F0E490010DF0A3F090010B96
:100C3F00E0FEA3E0FFA3E0FCA3E0FDC39FEC9E500A
:100C4F0040900109E0FAA3E0FB2D908306F0EB2D15
:100C5F00EA3CA3F0900106E0FBA3E0FAA3E0F990D1
:100C6F00010DE0FEA3E0F5828E83120954908303F9
:100C7F00F090010EE004F070B490010DE004F080EC
:0A0C8F00AC9083047443F074FFF08E
:010C99002238
:02104800AB07F4
:10104A00E490012EF0A3F09083047412F07434F04B
:10105A009083017406F0ED908306F0ECA3F0908380
:0A106A0003EBF0A37443F074FFF0F1
:011074002259
:100D2600900106EBF0A3EAF0A3E9F0A3ECF0A3ED43
:010D3600F0CC
:100D3700E490010DF0A3F09083017405F0E49001B5
:100D47000DF0A3F090010BE0FEA3E0FFA3E0FCA3EE
:100D5700E0FDC39FEC9E5042900109E0FAA3E0FB3F
:100D67002D908306F0EB2DEA3CA3F0908303E0FF80
:100D7700900106E0FBA3E0FAA3E0F990010DE0FC87
:100D8700A3E0F5828C83EF12098190010EE004F055
:0A0D970070B290010DE004F080AA94
:010DA100222F
:100C9A00900106EBF0A3EAF0A3E9F0A3ECF0A3EDD0
:010CAA00F059
:100CAB00E490010DF0A3F09083047412F07456F0ED
:100CBB009083017402F0E490010DF0A3F090010B0E
:100CCB00E0FEA3E0FFA3E0FCA3E0FDC39FEC9E507E
:100CDB0040900109E0FAA3E0FB2D908306F0EB2D89
:100CEB00EA3CA3F0900106E0FBA3E0FAA3E0F99045
:100CFB00010DE0FEA3E0F5828E831209549083036D
:100D0B00F090010EE004F070B490010DE004F0805F
:0A0D1B00AC9083047465F074FFF0DF
:010D250022AB
:100DA200900106EBF0A3EAF0A3E9F0A3ECF0A3EDC7
:010DB200F050
:100DB300E490010DF0A3F090830104F0E490010DA1
:100DC300F0A3F090010BE0FEA3E0FFA3E0FCA3E09F
:100DD300FDC39FEC9E5042900109E0FAA3E0FB2D76
:100DE300908306F0EB2DEA3CA3F0908303E0FF90A1
:100DF3000106E0FBA3E0FAA3E0F990010DE0FCA3F8
:100E0300E0F5828C83EF12098190010EE004F0700B
:090E1300B290010DE004F080AA88
:010E1C0022B3
:100B8E0002100FE493A3F8E493A34003F68001F25E
:100B9E0008DFF48029E493A3F85407240CC8C33368
:100BAE00C4540F4420C8834004F456800146F6DF37
:100BBE00E4800B0102040810204080900A79E47E44
:100BCE00019360BCA3FF543F30E509541FFEE4932C
:100BDE00A360010ECF54C025E060A840B8E493A3F3
:100BEE00FAE493A3F8E493A3C8C582C8CAC583CA1E
:100BFE00F0A3C8C582C8CAC583CADFE9DEE780BED6
:010B81000073
:10095400BB010CE58229F582E5833AF583E0225058
:1009640006E92582F8E622BBFE06E92582F8E222A2
:0D097400E58229F582E5833AF583E49322BC
:10098100F8BB010DE58229F582E5833AF583E8F0AC
:10099100225006E92582C8F622BBFE05E92582C858
:0209A100F22240
:1009A300EF8DF0A4A8F0CF8CF0A428CE8DF0A42E68
:0209B300FE2222
:1009B500EB9FF5F0EA9E42F0E99D42F0EC6480C8B9
:0609C50064809845F02259
:0C09CB00ECF0A3EDF0A3EEF0A3EFF0229F
:1009D700A8828583F0D083D0821209EE1209EE1225
:1009E70009EE1209EEE473E493A3C583C5F0C5834A
:1009F700C8C582C8F0A3C583C5F0C583C8C582C86A
:010A070022CC
:10000300E5082409F582E43401F583E0050822902C
:100013000106300703900109E475F001120A330267
:100023000A082000E97F2ED2008018EF540F249095
:10003300D43440D4FF30040BEF24BFB41A00500370
:100043002461FFE50960021509050CE50C70020542
:100053000B30070E900106E475F001120A33EF022C
:100063000A210210B57403D2078003E4C207F5081E
:10007300900106120A4AE4F509F50BF50CE509604F
:10008300077F2012004680F5750AFFC201C200C235
:1000930002C203C205C206C208120012FF700D306D
:1000A30007057F00120057AF0CAE0B22B4255FC2C9
:1000B300D5C204120012FF24D0B40A00501A75F0FE
:1000C3000A780930D50508B6FF0106C6A426F6202E
:1000D300D5047002D20380D924CFB41A00EF5004A0
:1000E300C2E5D204020258D20180C6D20080C0D237
:1000F3000280BCD2D580BAD20580B47F20120046DC
:100103002002077401B5090040F1120003FF120039
:1001130046020080D208D2068095120003FB12002B
:1001230003FA120003F94A4B700679297A037BFF1D
:1001330020022EE509602A7E008E82758300120953
:100143005460060EEE650A70F0C2D5EBC0E0EAC05B
:10015300E0E9C0E0EE12029FD0E0F9D0E0FAD0E08F
:10016300FB120A08FF60AAEBC0E0EAC0E0E9C0E0C6
:10017300120046D0E02401F9D0E03400FAD0E0FBCD
:10018300E50A0460DCD50AD980877BFF7A02799B74
:10019300D202809C791080027908C206C2088008C6
:1001A300D2D5790A8004790AC2D5E50A047002F52A
:1001B3000AE4FAFDFEFF120003FC7B082001131280
:1001C3000003FD7B1030000A120003FE120003FF40
:1001D3007B20EC3382D592D55013C3E43000069FC5
:1001E300FFE49EFEE42001039DFDE49CFCE4CBF8C8
:1001F300C201EC700CCFCECDCCE824F8F870F380BC
:1002030017C3EF33FFEE33FEED33FDEC33FCEB337B
:10021300FB994002FB0FD8E9EB300105F8D0E0C4AD
:1002230048B201C0E00AEC4D4E4F78207B0070C20B
:10023300EAB50A0040BCC0E01202A1D0F0D0E02031
:100243000104C4C0E0C4B201C0F012002FD0F0D545
:10025300F0EB020080120A53011D5301975800EE80
:100263004C00EA42019B4F01A34401A3490103430C
:0802730001A955018D46018D22
:10027B0045018D4703495000F22D00F62E01192B35
:10028B0000FA2301172003322A00B24800000111A3
:10029B003F3F3F00790AA2D5200314300509B9105E
:1002AB00020404B9080104A2D5200602500104205F
:1002BB0002689202B509005034C0E07F2030031968
:1002CB007F30A20272067205500F1202F8C202C2F0
:1002DB0006C205C2087F30800F300503E9C0E0126B
:1002EB000046300503D0E0F9D0E0B509CC30051756
:1002FB007F30B9100C1200467F583004077F78808E
:10030B0003B908031200463002057F2D0200467F19
:10031B00202008F87F2B2006F322920280CF286E34
:10032B00756C6C2900D2011200033001F8C2017800
:10033B000930D50108F60200B22D5043495812007E
:10034B00032403B405004001E490034493120037E7
:0D035B00743A120037D203750904020197AD
:100A0800BB010689828A83E0225002E722BBFE02EC
:090A1800E32289828A83E493221F
:100A2100BB010689828A83F0225002F722BBFE01B4
:020A3100F322AE
:100A3300F8E0FBA3A3E0F925F0F0E582158270024C
:070A43001583E0FA38F022F0
:090A4A00EBF0A3EAF0A3E9F022AD
:100A5300D083D082F8E4937012740193700DA3A332
:100A630093F8740193F5828883E473740293686046
:060A7300EFA3A3A380DF46
:00000001FF
