:0300000002000EED
:0C000E00787FE4F6D8FD758127020450CD
:10050E0052554E2D2D2D2D2D2D0D0A00736C65651A
:10051E00700D0A0049444C464C3D2562782C4944E6
:10052E004C46483D2562782C535450463D25627802
:03053E000D0A00A3
:0E057500E4FFFE0FBF00010EBE06F8BFA4F5A6
:010583002255
:0404C6008E228F23D0
:1004CA00E4F527F526F525F524AE22AF237C007D39
:1004DA000A12039AEE3395E0FDFCAB27AA26A9255A
:1004EA00A824C31203AC501BE4FAF9F8E527240147
:1004FA00F527EA3526F526E93525F525E83524F5E3
:03050A002480C684
:01050D0022CB
:0E0584008F9CE59B5402640270F8539BFD228D
:0505AE00AE0702058408
:03000B0002059C4F
:09059C00758A0A758CD6B2913201
:03001B000205A536
:0905A500758B0A758DD6B29132F6
:03002B00020003CD
:0600030053C87FB29132E8
:03003B000205417A
:10054100C0E0E5B254806480700553B27FB291D0AF
:02055100E03296
:0A001E00758A0A758CD6E4F5892274
:0A002E00758B0A758DD6E4F5892262
:10055300E4F5CBF5CA85CACC85CBCD75C98075C802
:02056300042270
:10056500E4F5AEF5AFF5B4F5B575B3C475B20422CF
:0A059200759B80759DCC759E0322B9
:10045000E4F5864396809080087402F0A3F0A3F040
:100460009080027406F090800EF01205927BFF7A65
:1004700005790E1200A0120565D2E853C87FC28D1F
:10048000C28F53B27FAFFCEF70F1AFFDEF70ECB2F3
:10049000920000B2927BFF7A05791A1200A053965F
:1004A0007F53977F908300E04480F04387010000F2
:1004B00000007BFF7A05792285FC0B85FD0C85FE0B
:0604C0000D1200A080B542
:10039A00EF8DF0A4A8F0CF8CF0A428CE8DF0A42E77
:0203AA00FE2231
:1003AC00EB9FF5F0EA9E42F0E99D42F0EC6480C8C8
:0603BC0064809845F02268
:10003E00E517240BF8E60517227808300702780B2F
:10004E00E475F00112041A0203C22000EB7F2ED2D7
:10005E00008018EF540F2490D43440D4FF30040B9A
:10006E00EF24BFB41A0050032461FFE51860021597
:10007E0018051BE51B7002051A30070D7808E4758C
:10008E00F00112041AEF0204080205AE7403D2073F
:10009E008003E4C207F5178B088A09890AE4F5186C
:1000AE00F51AF51BE51860077F2012007980F575AB
:1000BE0019FFC201C200C202C203C205C206C208B3
:1000CE00120047FF700D3007057F0012008AAF1B2C
:1000DE00AE1A22B4255FC2D5C204120047FF24D047
:1000EE00B40A00501A75F00A781830D50508B6FF14
:1000FE000106C6A426F620D5047002D20380D924A8
:10010E00CFB41A00EF5004C2E5D20402028AD20123
:10011E0080C6D20080C0D20280BCD2D580BAD205B1
:10012E0080B47F201200792002077401B5180040B8
:10013E00F112003EFF1200790200B2D208D2068000
:10014E009512003EFB12003EFA12003EF94A4B7029
:10015E0006795B7A037BFF20022EE518602A7E006B
:10016E008E827583001203DB60060EEE651970F049
:10017E00C2D5EBC0E0EAC0E0E9C0E0EE1202D1D099
:10018E00E0F9D0E0FAD0E0FB1203C2FF60AAEBC0A8
:10019E00E0EAC0E0E9C0E0120079D0E02401F9D035
:1001AE00E03400FAD0E0FBE5190460DCD519D98003
:1001BE00877BFF7A0279CDD202809C7910800279FA
:1001CE0008C206C2088008D2D5790A8004790AC20C
:1001DE00D5E519047002F519E4FAFDFEFF12003E92
:1001EE00FC7B0820011312003EFD7B1030000A122A
:1001FE00003EFE12003EFF7B20EC3382D592D5509E
:10020E0013C3E43000069FFFE49EFEE42001039D2D
:10021E00FDE49CFCE4CBF8C201EC700CCFCECDCC4F
:10022E00E824F8F870F38017C3EF33FFEE33FEEDDA
:10023E0033FDEC33FCEB33FB994002FB0FD8E9EBBB
:10024E00300105F8D0E0C448B201C0E00AEC4D4ED2
:10025E004F78207B0070C2EAB5190040BCC0E01296
:10026E0002D3D0F0D0E0200104C4C0E0C4B201C07B
:10027E00F0120062D0F0D5F0EB0200B212042A01A7
:10028E004F5301C95801204C011C4201CD4F01D5DD
:0F029E004401D54901354301DB5501BF4601BF7E
:1002AD004501BF47037B5001242D01282E014B2B07
:1002BD00012C2301492003642A00E4480000014376
:1002CD003F3F3F00790AA2D5200314300509B9102C
:1002DD00020404B9080104A2D5200602500104202D
:1002ED0002689202B518005034C0E07F2030031927
:1002FD007F30A20272067205500F12032AC202C28B
:10030D0006C205C2087F30800F300503E9C0E01238
:10031D000079300503D0E0F9D0E0B518CC300517E1
:10032D007F30B9100C1200797F583004077F788028
:10033D0003B908031200793002057F2D0200797F81
:10034D00202008F87F2B2006F322920280CF286E02
:10035D00756C6C2900D20112003E3001F8C2017893
:10036D001830D50108F60200E42D5043495812000B
:10037D003E2403B405004001E49003769312006A15
:0D038D00743A12006AD2037518040201C907
:1003C200BB010689828A83E0225002E722BBFE0239
:0903D200E32289828A83E493226C
:1003DB00BB010CE58229F582E5833AF583E02250D7
:1003EB0006E92582F8E622BBFE06E92582F8E22221
:0D03FB00E58229F582E5833AF583E493223B
:10040800BB010689828A83F0225002F722BBFE01D3
:02041800F322CD
:10041A00FAE6FB0808E6F925F0F618E6CA3AF622E3
:10042A00D083D082F8E4937012740193700DA3A361
:10043A0093F8740193F5828883E473740293686075
:06044A00EFA3A3A380DF75
:00000001FF
