:030000000200A952
:0C00A900787FE4F6D8FD75810D0200732D
:0E009A00E4FFFE0FBF00010EBE06F8BFA4F586
:0100A8002235
:040003008E088F09CB
:10000700E4F50DF50CF50BF50AAE08AF097C007D9C
:100017000A12004BEE3395E0FDFCAB0DAA0CA90BC1
:10002700A80AC312005D501BE4FAF9F8E50D240194
:10003700F50DEA350CF50CE9350BF50BE8350AF546
:030047000A80C666
:01004A002293
:100088009080F074C0F0A3E4F0A37432F0A374631A
:02009800F02254
:10007300E4F5864396809080097402F090800DF039
:0500830012008880FE60
:10004B00EF8DF0A4A8F0CF8CF0A428CE8DF0A42EC9
:02005B00FE2283
:10005D00EB9FF5F0EA9E42F0E99D42F0EC6480C81A
:06006D0064809845F022BA
:00000001FF
