:0300000002059E58
:0C059E00787FE4F6D8FD75812102038A05
:1005480052554E2D2D2D2D2D2D0D0A00736C6565E0
:10055800700D0A0049444C464C3D2562782C4944AC
:100568004C46483D2562782C535450463D256278C8
:030578000D0A0069
:0E058F00E4FFFE0FBF00010EBE06F8BFA4F58C
:01059D00223B
:0805AA008F993099FDC29922DE
:05002500AE070205AA70
:10000300C29FD29EC29CC298C299C2CAE4F5C97566
:10001300CACC75CBFF85CACC85CBCDD2CAD2CDD2C3
:02002300CC22ED
:03002B0002057B50
:10057B00C0E0C083C082B292908044E4F0D082D0BD
:04058B0083D0E03207
:10038A00E4F58643968043978012058F9080067421
:10039A0006F09080097402F0A3F01200037BFF7A42
:1003AA000579481200909080517408F090805904A1
:1003BA00F090806104F090806904F090807104F0FC
:1003CA0090807904F090808104F090808904F09004
:1003DA0080507480F0908060F0908070F0908080FF
:1003EA00F0908054740AF0A3E4F0A37463F0A3E4D9
:1003FA00F090805C7414F0A3E4F0A37463F0A3E4B7
:10040A00F0908064741EF0A3E4F0A37463F0A3E494
:10041A00F090806C7428F0A3E4F0A37463F0A3E472
:10042A00F09080747432F0A3E4F0A37463F0A3E450
:10043A00F090807C743CF0A3E4F0A37463F0A3E42E
:10044A00F09080847446F0A3E4F0A37463F0A3E40C
:10045A00F090808C7450F0A3E4F0A37463F0A3E4EA
:10046A00F090804074FFF075A8A0908044E4F0AF4B
:10047A00FCEF70F6AFFDEF70F17BFF7A057954124D
:10048A000090B2910000B29153967F53977F908368
:10049A0000E04480F0758701000000007BFF7A05C8
:1004AA00795C85FC0D85FD0E85FE0F12009080BAE1
:10002E00E519240DF8E6051922780A300702780D35
:10003E00E475F0011205120204BA2000EB7F2ED2F5
:10004E00008018EF540F2490D43440D4FF30040BAA
:10005E00EF24BFB41A0050032461FFE51A600215A5
:10006E001A051DE51D7002051C30070D780AE47592
:10007E00F001120512EF0205000200257403D207EB
:10008E008003E4C207F5198B0A8A0B890CE4F51A72
:10009E00F51CF51DE51A60077F2012006980F575C5
:1000AE001BFFC201C200C202C203C205C206C208C1
:1000BE00120037FF700D3007057F0012007AAF1D5A
:1000CE00AE1C22B4255FC2D5C204120037FF24D065
:1000DE00B40A00501A75F00A781A30D50508B6FF22
:1000EE000106C6A426F620D5047002D20380D924B8
:1000FE00CFB41A00EF5004C2E5D20402027AD20144
:10010E0080C6D20080C0D20280BCD2D580BAD205C1
:10011E0080B47F201200692002077401B51A0040D6
:10012E00F112002EFF1200690200A2D208D2068040
:10013E009512002EFB12002EFA12002EF94A4B7069
:10014E0006794B7A037BFF20022EE51A602A7E0089
:10015E008E827583001204D360060EEE651B70F05E
:10016E00C2D5EBC0E0EAC0E0E9C0E0EE1202C1D0B9
:10017E00E0F9D0E0FAD0E0FB1204BAFF60AAEBC0BF
:10018E00E0EAC0E0E9C0E0120069D0E02401F9D055
:10019E00E03400FAD0E0FBE51B0460DCD51BD9800F
:1001AE00877BFF7A0279BDD202809C79108002791A
:1001BE0008C206C2088008D2D5790A8004790AC21C
:1001CE00D5E51B047002F51BE4FAFDFEFF12002EAE
:1001DE00FC7B0820011312002EFD7B1030000A124A
:1001EE00002EFE12002EFF7B20EC3382D592D550CE
:1001FE0013C3E43000069FFFE49EFEE42001039D3E
:10020E00FDE49CFCE4CBF8C201EC700CCFCECDCC5F
:10021E00E824F8F870F38017C3EF33FFEE33FEEDEA
:10022E0033FDEC33FCEB33FB994002FB0FD8E9EBCB
:10023E00300105F8D0E0C448B201C0E00AEC4D4EE2
:10024E004F78207B0070C2EAB51B0040BCC0E012A4
:10025E0002C3D0F0D0E0200104C4C0E0C4B201C09B
:10026E00F0120052D0F0D5F0EB0200A212052201DE
:10027E003F5301B95801104C010C4201BD4F01C54D
:0F028E004401C54901254301CB5501AF4601AFDE
:10029D004501AF47036B5001142D01182E013B2B67
:1002AD00011C2301392003542A00D44800000133D6
:1002BD003F3F3F00790AA2D5200314300509B9103C
:1002CD00020404B9080104A2D5200602500104203D
:1002DD0002689202B51A005034C0E07F2030031935
:1002ED007F30A20272067205500F12031AC202C2AB
:1002FD0006C205C2087F30800F300503E9C0E01249
:10030D000069300503D0E0F9D0E0B51ACC300517FF
:10031D007F30B9100C1200697F583004077F788048
:10032D0003B908031200693002057F2D0200697FB1
:10033D00202008F87F2B2006F322920280CF286E12
:10034D00756C6C2900D20112002E3001F8C20178B3
:10035D001A30D50108F60200D42D50434958120029
:10036D002E2403B405004001E49003669312005A55
:0D037D00743A12005AD203751A040201B935
:1004BA00BB010689828A83E0225002E722BBFE0240
:0904CA00E32289828A83E4932273
:1004D300BB010CE58229F582E5833AF583E02250DE
:1004E30006E92582F8E622BBFE06E92582F8E22228
:0D04F300E58229F582E5833AF583E4932242
:10050000BB010689828A83F0225002F722BBFE01DA
:02051000F322D4
:10051200FAE6FB0808E6F925F0F618E6CA3AF622EA
:10052200D083D082F8E4937012740193700DA3A368
:1005320093F8740193F5828883E47374029368607C
:06054200EFA3A3A380DF7C
:00000001FF
